:020000040800F2
:10000000180A0020593500086F1900082F1F000832
:1000100000000000000000000000000000000000E0
:10002000000000000000000000000000431F000866
:100030000000000000000000D7210008332D000858
:1000400013300008473000088F310008433600089D
:100050004F36000881360008412300088336000827
:1000600085360008752300086D15000887360008DE
:1000700089360008AF2B00088B3600088D36000843
:100080008F3600080000000000000000B1270008C3
:1000900000000000C1270008D127000891360008A1
:1000A000000000009336000895360008111600087D
:1000B0009736000800000000993600089B360008BB
:1000C000F8B50CB48EB00EAA30CA74A20CCA224085
:1000D0002B4002D1002A00D12AE302AA03C202A8BF
:1000E0000CC800206C4900F039FB00D120E30EA8B9
:1000F00003C8009102A80CC80020CC4900F02EFBD8
:1001000006D169004915491C02D1280300D10FE32B
:1001100002A803C8019148004015401C00D1EFE13E
:1001200002A803C806AA03C206A803C85BA20CCA99
:1001300002400B4002D1002A00D1E1E168004015E5
:10014000401C00D1DCE1200029000B0002185B41BB
:1001500004D1002A02D10EA803C818E0B44E5A0DEB
:10016000B61A352E06DB002280231B060B4004A89E
:100170000CC00EE0202E03DD203EF140B14000E037
:1001800001D1002003E0002E01DDF040B04004AAC0
:1001900003C206A803C8C80F1CD0002D06DA002031
:1001A00080210906001BA94104000D0004A803C812
:1001B000002906DA002280231B06121A8B41100048
:1001C00019008D4201D1844204D000BF00BF33A08A
:1001D00003C8AFE26A4602A803C800F0D1FA0400DF
:1001E0000D00C80F40D06D006D0804A803C802AA16
:1001F00003C202A80CC89018494101D1002817D0A9
:100200008C4E480D361A352E05DB80210906194023
:1002100000220B000CE0202E03DD203EF340B34013
:1002200000E001D1002203E0002E01DDF240B240E7
:1002300002A803C8002905DA002680273F06361ADF
:100240008F4101E006000F00002B06DA002080211C
:100250000906801A994102000B009F4203D1964281
:1002600001D1002000E0012005900098012819D15B
:1002700020002900BCA20CCA00F097FA12D200207C
:100280000190054902AA03C201222000290000F0C2
:10029000A5FA04000D0022E00000F03FFFFFFFFF81
:1002A000FFFFFF7F0020AE4922002B0000F0CEFAB6
:1002B0000022AF4B00F08CFB00F064FC2038019072
:1002C00000F0B8FC0022A74B00F0C0FA0022A84BB7
:1002D00000F07EFB02AA03C20198400101902000B9
:1002E000290002AA0CCA00F0D6FB06000F0002A8E3
:1002F00003C822002B0000F06BFB02000B00300053
:10030000390000F0A1FC06AA03C206A80CC806A882
:1003100003C800F09BFA06000F002000290002AA83
:100320000CCA00F0B8FB08AA03C2C5A003C832007B
:100330003B0000F08BFAC4A20CCA00F049FB32006B
:100340003B0000F083FAC2A20CCA00F041FB32006D
:100350003B0000F07BFAC0A20CCA00F039FB32006F
:100360003B0000F073FAAAA20CCA00F031FB320085
:100370003B0000F06BFAA8A20CCA00F029FB320087
:100380003B0000F063FAA6A20CCA00F021FB320089
:100390003B0000F05BFA08AA0CCA00F07CFB0400EA
:1003A0000D000020A54902AA0CCA00F074FB01222E
:1003B00000F014FA22002B0000F00AFB06AA0CCA77
:1003C00000F044FA02000B001B4878446A3001999F
:1003D000461808A803C800F0FBFA06AA03C2009852
:1003E00000F028FC0CCE083E00F0F2FA04000D00EC
:1003F00006A80CC88CA003C800F028FA22002B0025
:1004000000F0E6FA0EAA0CCA00F020FA0022884B8F
:1004100000F0CBF96AD30122864B00F076FC62D95A
:10042000CA0F0BD00022844B09E000BF0000F0BFD0
:100430003304000034040000F80B00004C4B00F0C3
:10044000C7FA00F09FFB0700009700227B4B039246
:10045000049322002B000EA803C800F0F7F9040053
:100460000D00380000F0E6FB02000B002000290020
:1004700000F011FBB7A20CCA00F0E8F9019002915C
:1004800006A80CC80EA803C800F0E0F904000D008F
:100490003000083003C8320010320CCA00F098FA5D
:1004A00002000B000EA803C800F0D0F9A9A20CCAE4
:1004B00000F0CCF922002B0000F08AFA019A029B8E
:1004C00000F086FA039A049B00F038FC9BA20CCA49
:1004D00002400B4001D1002A08D04B005B155B1C89
:1004E00006D10A0304D10020994901E0002000212F
:1004F000059A002A00D11DE180221206514019E11F
:10050000084641004915491C059103D1000301D05B
:1005100002A807E069004915491C049104D1280389
:1005200002D00EA803C805E1012668004015401C52
:1005300000D1B6E0200029000B0002185B4104D175
:10054000002A02D10EA803C821E07E4F5A0DBA1A24
:10055000352A0FDB0B00002080210906194016E028
:10056000000050400000903FCD3B7F669EA0E63FDC
:100570000000E03F202A03DD203AD140914000E016
:1005800001D1002003E0002A01DDD040904006AAFE
:1005900003C220002900002907DA002280231B065D
:1005A000121A8B410CA80CC001E00CAA03C206A8C9
:1005B00003C80AAA03C20AA803C8002907DA00224E
:1005C00080231B06121A8B4108A80CC001E008AA60
:1005D00003C20CA803C808AA0CCA994201D19042D0
:1005E00000D000260AA803C80B0002185B4104D102
:1005F000002A02D106A803C83FE0534F5A0DBA1A89
:10060000352A2DDB0B00002080210906194034E03B
:100610004AE98A942449D23FF75F97999999D93F3B
:10062000BC5555555555E53FFE822B654715F73F9F
:100630000000E0C00000E0400000E0BF0000F03F2C
:10064000F7DE29BFD8F8C23FF4B3FECC1A99C33FF6
:1006500062CB68D96F46C73FC6C912DAC471CC3FB6
:10066000202A03DD203AD140914000E001D1002052
:1006700003E0002A01DDD0409040002E11D008AAEE
:100680000CCA002906DA002680273F06361A8F4159
:10069000300039008B4203D1824201D1002600E0B4
:1006A000012601980599002908D1000306D102A866
:1006B00003C8C80F12D1EC0F38D030E004990029DC
:1006C00015D1280313D16A4602A803C800F058F8D0
:1006D000EC0F009818D1002814DC19E0EC0F03D1BE
:1006E000002E20D1002021E0002E11D006E0002EA7
:1006F00011D10020EC0F14D1002810D0002080214F
:10070000090617E0002011E0002801DC00200DE0C0
:10071000002000210EE002A803C8C80FEAE700216C
:1007200008E0002802D00020084903E0084901E061
:100730000020014911B0F0BD0000F03FFFFFFFFFB6
:10074000FFFFFF7F33040000340400000000F0FFCF
:100750000000F07FEF39FAFE422EE63F90420ED1C4
:10076000A4460C001C430128644107D0994205D1DE
:100770004C006415641C644000D30C03644670474D
:1007800010B5144600F002F8226010BD4A0053155F
:100790005B1C08D0520D06D003231B02FE3AD21A6E
:1007A0001305C91A70470022704730B4012464054C
:1007B0004D00EC420BD85D00EC4208D80C001C4305
:1007C00064000443144304D2994200D1904230BCE7
:1007D0007047FCD08B42FAD18242F8E7124217D41C
:1007E0000023DB435B0D9C464B005B0D06D063454D
:1007F00004D09B18634502D21205891870476246DF
:10080000090D11430905002000B500BF00BF00BD60
:1008100052424B005B0DF1D05B1C5B05EED25B0DD1
:10082000934102D91205891A70470BD10B031B1390
:10083000C90FC907821C002043411343E4D91205A4
:100840001143E1E7C90FC9070020DDE7F0B50E004D
:100850005E400125ED072E40B446AE0ADF184C1865
:10086000F44208D2F7420ED2640D01D07F0D12D1AE
:1008700000206146F0BD05D1F74201D87F0D05D1BA
:100880000020C143F0BDFBD1640DF9D00020C1436D
:10089000490549088FE0E419C902DB0229432B43CB
:1008A000DB0A460DC00231438E4630B487B295B2A2
:1008B0007D432E0CADB2140C7C43A419260C2404E9
:1008C00025439CB27C43A419190C7943270CC91900
:1008D000A4B20F043C43090C000C97B247432E0C02
:1008E000BE193543ADB2170C4743360CBF19A6B23B
:1008F000BF193E043543240C3E0C36199FB24743C2
:10090000BF19BCB23E0C89191F0C47437F183E0427
:100910003443390C704680B297B247432E0CBE194F
:100920003543ADB2170C4743360CBF19A6B2BF19F9
:100930003E043543240C3E0C36199FB24743BF1981
:10094000BCB23E0C89191F0C47437F183E04344348
:10095000390C77463F0C90B278432E0C8019060470
:10096000ADB22E43050CA0B22D18120C7A435019CB
:10097000020C80B2240CA4189AB27A4312191404FF
:100980002043120C89181B0C7B43C91830BCEF0A9A
:10099000394203D1B61940414941641E6F12BF0D5F
:1009A000E41B0BDBFF19BC4211DA240500274208C7
:1009B000AE417841614166463143F0BD641C05D1CA
:1009C000401C6141CF0201D34908F4E750E75DE7DD
:1009D000F0B40125ED070F005F404FD48B4200D1EA
:1009E000824205D98446100062468C46190063464F
:1009F000DF184C18640D7F0D3AD0661C760537D091
:100A0000E61B352E34DCDB022B43DB0A0C0DC9025E
:100A10002943C912202E0DDB1700203E06D01F00EF
:100A2000F741F3405F400026012A7741C018714129
:100A30000DD217E01700F741F2405740F3415A40FA
:100A4000B340F3405A400026801859410AD3A21CF3
:100A500052050FD0C207012F724117004008CB0783
:100A600018434908641C24054208AF4170416141A4
:100A7000F0BC7047641C21050020F9E76B4010E0D2
:100A80006B40ABE7F742F3D1E943F1E72442EFD102
:100A900000200021ECE7F0B40125ED070F005F40D6
:100AA000EED40C00871A9C4105D2C01BA141D2197B
:100AB000634169406B40AE0ADF184C18F442E1D242
:100AC000640D7F0DE2D0E61B362ED1DCDB022B431A
:100AD000DB0AA4460C0DC9022943C90A012E28DCF1
:100AE00004D1D6075208DF073A435B08EF0A764283
:100AF0009041994114D039423BD1B6194041494106
:100B0000761C394204D1761C001849413942FAD08A
:100B1000B9436746B74208D9A41B24052143A7E778
:100B20000042EAD13642E8D1A2E7E40AE107002018
:100B30009EE7202E0BDD203E1F00F340F7415F4073
:100B4000012A002257417E42984191410BE0170053
:100B5000F741F2405740F3415A40B340F3405A4006
:100B60007E42904199410A0303D2641EB619404166
:100B700049410027641E24054208AE417841614185
:100B8000F0BC7047F4464A1805D200F00FF801D5C2
:100B900080174008604700F009F80121C907884222
:100BA00000D90800404260474A1812D2400DC902DD
:100BB00008430121C9070843520D40210901521A77
:100BC000521C06D452421F3201D4D0407047C01785
:100BD00070470020704730B50168411844686208CA
:100BE0008A188368E40704D54C461B1901E0641C8D
:100BF00009D1914203D00C7864B2491C01E00C3059
:100C000030BD0D78491C1D705B1C002CEFD4641E98
:100C1000F7D5EEE7010042221201D21E004207D0B2
:100C200002D4521E0018FCD5C10A400512058918CD
:100C3000704700000100EED54042F446FFF7EBFF9D
:100C40000122D20711436047F0B40E005E40012537
:100C5000ED072E40B446AE0ADF184C18F4423BD2E2
:100C6000F74241D2640D43D07F0D38D0E41BC90256
:100C7000DB0229432B43CF0ADB0A0600B61A9F4149
:100C800004D2641EB6197F41B6185F416812800D08
:100C900024180018844222DCE80C0021B6197F4198
:100CA000B61A9F4102D2B6185F413F1C40414941EC
:100CB000F4D3241C21DD2405B6197F41B61A9F41C7
:100CC00005D33743C60737430026012F70416141E2
:100CD00066463143F0BC7047FCD1F74205D2002094
:100CE000C14349054908F3E704D00020C143F1E7B7
:100CF0007F0DFAD000206146ECE72442FAD1401C77
:100D000061410F03F6D30020E2E730B4012464050B
:100D10004D00EC420BD85D00EC4208D80C001C439F
:100D200064000443144304D28B4200D1824230BC9D
:100D30007047FCD09942FAD19042F8E7F8B50FB469
:100D400084B0009148004015401C24D004A803C87A
:100D5000A1A20CCA02400B4001D1002A1BD006AA56
:100D60000CCA1C0062005215521C14D006AA0CCAF0
:100D700099A6C0CE16401F4001D1002E0BD0020014
:100D80000B00002B56DA002680273F06B61A9F413B
:100D90006A46C0C250E0009841004A15521C03D177
:100DA000000301D004A825E006A803C80B005900E1
:100DB0004E15761C01D118031BD106A803C886A4C2
:100DC00030CC04400D400BD1002C09D10098002AF2
:100DD0000FD100030DD100BF00BF7FA003C8F9E011
:100DE000002E09D1180307D10098002A01D1000371
:100DF000F1D006A803C8EDE004A803C876A430CC5F
:100E000004400D4005D1002C03D10E9A06A803C85A
:100E1000CBE00098002A07D1000305D104A80CC834
:100E200003C8FFF713FDD5E00020802109060B4021
:100E30001900CFE06D460CC50026694F002F04DA7B
:100E400080231B06B21BBB411F006A460CCABB4273
:100E500004DA0020802109060C4018E00022614BD2
:100E6000002B04DA80273F06B61A9F413B006846F4
:100E700003C88B420DDC01DB82420AD200BF00BFF7
:100E800059490800802109060C4004430020210034
:100E9000A0E004A80CC855A003C8FFF7D7FC624B1C
:100EA0001A000C0080231B061C4014430022230060
:100EB000FFF78EFDFFF766FE0090FFF7BBFE040014
:100EC0000D004CA003C822002B00FFF7BFFC04AAB2
:100ED0000CCAFFF77DFD06000F0048A003C82200E2
:100EE0002B00FFF7B3FC32003B00FFF771FD04005D
:100EF0000D00690049080022424BFFF756FC02D260
:100F000006A803C84EE022002B002900FFF79EFC34
:100F100006000F003CA003C832003B00FFF796FC20
:100F20003BA20CCAFFF754FD32003B00FFF78EFCDA
:100F300002AA03C238A003C832003B00FFF786FCB8
:100F400037A20CCAFFF744FD32003B00FFF77EFCDE
:100F50000022354BFFF73CFD22002B00FFF776FC0B
:100F600004000D0002A803C822002B00FFF730FD8B
:100F700000222E4BFFF72CFD06000F0002A803C82D
:100F800022002B00FFF787FD0022284BFFF720FDF2
:100F900002000B0030003900FFF756FE06AA0CCA0B
:100FA000FFF754FC009A0E9BD218FFF717FC0400C1
:100FB0000D0009A003C82040294001D1002805D018
:100FC00069004915491C03D1280301D100BF00BFA6
:100FD0002000290009B0F0BDFFFFFFFFFFFFFF7FEA
:100FE00000C89CC000C89C400000F07FFE822B65BA
:100FF0004715F73F000000F8422EE6BFF2E4D5BCEB
:10100000E7E84BBE0000903C112E5781A03F503FB7
:101010005843128C8F71BC3F4BE8A541B752013F3A
:101020000BBDF3DAE8708C3F0000E03F0000F03FBA
:10103000000000000000F0BF000000000000008081
:101040000000000000000080000000000000000020
:10105000000000C05294EEBF00000048204E51BE78
:10106000000000F86467BCBC000000000000000045
:10107000000000208133EDBF00000080B3DB14BE10
:10108000000000506706A3BC000000000000000044
:10109000000000D0E9DCEBBF00000008C39259BE9D
:1010A00000000080B0D3B8BC0000000000000000C9
:1010B00000000070F98FEABF000000C0A51028BE34
:1010C000000000E8BFC0B0BC00000000000000004D
:1010D00000000070284CE9BF00000060134B42BEC6
:1010E000000000C03D20B8BC00000000000000006F
:1010F00000000050FA10E8BF000000C05FF62BBEF1
:10110000000000905C71A7BC00000000000000001F
:1011100000000020FCDDE6BF000000C0F8F154BE76
:1011200000000018E9F6B9BC000000000000000053
:10113000000000D0C3B2E5BF00000070E43254BE2E
:1011400000000050DB06B4BC0000000000000000FE
:1011500000000010EF8EE4BF00000020F36252BEDA
:10116000000000C02A879ABC0000000000000000B8
:10117000000000B02272E3BF000000F0E8E056BEBD
:1011800000000028352DBDBC00000000000000005C
:10119000000000000A5CE2BF000000B0FA8E41BE11
:1011A00000000040AE6FBDBC000000000000000069
:1011B00000000000564CE1BF000000F015CD5FBEFE
:1011C00000000000141C90BC0000000000000000A3
:1011D00000000040BD42E0BF00000030F93457BEBF
:1011E000000000E06C1E93BC000000000000000046
:1011F000000000E0F57DDEBF000000B08A535EBE57
:1012000000000080DA77AABC0000000000000000A7
:10121000000000C09D81DCBF00000000FFA226BED0
:101220000000006057E2B0BC0000000000000000B9
:1012300000000060F98FDABF000000580A8151BE3B
:10124000000000F05F60B8BC00000000000000007B
:101250000000000098A8D8BF000000607A7F45BE5B
:10126000000000D05433A3BC0000000000000000C8
:10127000000000600FCBD6BF000000D091CB40BE75
:10128000000000406D1BA0BC00000000000000003A
:10129000000000A0FBF6D4BF00000098C5CE52BEEF
:1012A000000000003A397EBC000000000000000091
:1012B000000000E0FE2BD3BF0000004073872BBE70
:1012C00000000000926879BC0000000000000000EF
:1012D00000000040C069D1BF00000058F16353BE58
:1012E00000000080438D7CBC000000000000000076
:1012F00000000080D85FCFBF000000181F8354BEDD
:10130000000000B03F42A2BC00000000000000004E
:101310000000008067FCCBBF00000060FAFF53BEF6
:1013200000000050E00DB8BC00000000000000000C
:101330000000000098A8C8BF000000607A7F35BE9A
:10134000000000C0543393BC000000000000000007
:1013500000000000DC63C5BF00000058D6FF54BE8B
:1013600000000000396490BC000000000000000094
:10137000000000C0AD2DC2BF00000080A45915BE02
:10138000000000E0484BABBC000000000000000083
:10139000000000801A0BBEBF00000050BF3C5ABEC8
:1013A000000000A0B364B6BC000000000000000014
:1013B0000000008004D6B7BF00000040BBCF36BE9F
:1013C0000000008076CEA8BC0000000000000000F5
:1013D0000000008032BBB1BF000000402A0043BEC5
:1013E00000000028C60CBDBC00000000000000008A
:1013F000000000009473A7BF000000182B3B59BEEB
:10140000000000C0E55DA5BC000000000000000079
:1014100000000000EE4397BF000000A0E6C340BEFE
:1014200000000020958DB5BC000000000000000009
:1014300000000000000000800000000000000080AC
:10144000000000000000008000000000000000001C
:1014500070B4A44908688022920202430A60012005
:101460000A6802430A604A68830313434B60902171
:10147000C9050A68A0239B0313430B608A68F02305
:101480009B0313438B604A6A88235B0013434B62C0
:1014900095490A68104308600868944A02400A6047
:1014A00093484A6802404A600A68042313430B6069
:1014B0000A68082313430B600A68202313430B6058
:1014C00080228B6813438B608A490B691B021B0ABD
:1014D000D4051C430C61884B14051C60874C25689F
:1014E000874E2E4026602568864E2E402660256851
:1014F0002840206020682025A843206020680243FF
:10150000226020684022904320602068102202431D
:101510002260206802220243226008687A4A024060
:10152000C020000410430860200D186070BC704794
:1015300000B5010075480160754800684A088018C8
:1015400000F0A7F97349086000BD10B40122724C85
:1015500022706A4B1C6894431C6059606F49996003
:10156000D860186802431A6010BC704720206C498C
:101570000A68024005D04A68104348600020664966
:101580000870704770B4644A002151709178654CBE
:101590008D006D18641905782570057855704678AA
:1015A00066704678AD1955708678A6708678AD1944
:1015B0005570C678E670C0782D18681CC643700652
:1015C000400E20710A2900DA491C9170557070BCD8
:1015D000704751480178002900D0704710B48378D3
:1015E000002B12D001210170444A14688C4314600E
:1015F0009C00E3189BB25360484B9360494BD36007
:101600001368194311600021817010BC70470000FD
:1016100045480168890600D4704710B5016820224A
:1016200091430160414C0089A07041480078012835
:1016300020D1A078802803DB0020207060700FE0AC
:101640006178042909D12178491CCA435106490E01
:10165000884246D1201D00F071F86078042840DAF5
:101660006078A178221D1154401C607020784018C9
:10167000207010BD2F480078002802D161780F2912
:1016800003E0012807D16178022904D300216170A9
:10169000211D00220A606178A278231D5A54491C3A
:1016A000617000280DD100BF69A1201D00F048F92C
:1016B000002816D000206070201D0021016003204A
:1016C0000DE001280DD11CA1201D00F039F90028E2
:1016D00007D000206070201D00210160062000F06E
:1016E0005AF910BD1410024000380140FFEFFFEF1F
:1016F000FFCFFFFF08E400E000E100E01C00024033
:10170000FFF3FFFFFFFCFFFFFFFF00FF04060020C9
:10171000500200200C380140080600202838014003
:1017200000000240900500201C380140E005002028
:1017300003000020040000204F4B000080B501781A
:10174000812932D0822934D0842936D0852936D0D7
:10175000A12947D0A22948D0A32949D0A4294AD0F9
:10176000A5294BD0A6294CD0A7294DD0A8294ED0C9
:10177000A9294FD0AB2950D0AC2951D0AD2952D096
:10178000AF2953D0B02954D0B12955D0B22956D061
:10179000B32957D0C12916D0C22917D0C32918D0D0
:1017A000C42919D0C5291AD001BD407800F02EFAFD
:1017B0004AE0407800F032FA46E0082000E00920D4
:1017C00000F0E9F840E000F062FA3DE000F069FA6C
:1017D0003AE000F06FFA37E000F04FFA34E000F042
:1017E00037FA31E000F0B0FA2EE000F0B8FA2BE062
:1017F00000F0C0FA28E000F0CDFA25E000F0E8FAA9
:1018000022E000F0F5FA1FE000F0FCFA1CE000F026
:101810000BFB19E000F01BFB16E000F022FB13E0CD
:1018200000F023FB10E000F028FB0DE000F030FB9F
:101830000AE000F031FB07E000F039FB04E000F0C3
:1018400041FB01E000F042FB00F0A1F801BD000007
:101850002B56455253494F4E3D4A44592D33310082
:10186000F446002804D4494200F013F8404260478F
:101870004042002905D45FD000F00BF840424942B5
:101880006047494200F005F84942604703460B4370
:10189000E6D40022030A8B420BD203098B4219D2F1
:1018A00043088B422ED2411A00D2014652411046C3
:1018B0007047FF2209023FD012068B4205D3121255
:1018C00009028B4201D31212090203098B4219D378
:1018D00000E0090AC3098B4201D3CB01C01A52416F
:1018E00083098B4201D38B01C01A524143098B42B9
:1018F00001D34B01C01A524103098B4201D30B01A2
:10190000C01A5241C3088B4201D3CB00C01A5241C6
:1019100083088B4201D38B00C01A524143088B428B
:1019200001D34B00C01A5241884200D3401A5241A1
:10193000CFD201461046704708B500F0F7FA08BD4F
:1019400070B50D78002D11D00C0004E0491C0E7804
:10195000964207D0401C290000F0EAFA002805D082
:10196000010023005B1C1A78002AEFD170BDFEE74E
:101970009B488179002909D08289C3899A4203D37F
:101980004171002181717047521C82817047002093
:1019900093498881704792494871704738B5904C97
:1019A00060780E2805DD2178012902DD07206071AD
:1019B00031BD00252571E570800020180069FFF712
:1019C000B7FD0C218DA0FFF7C0FDFA208000E0815B
:1019D000A5810220A071012000F0B4FA207801282E
:1019E00003DD00206178491C6170401C207031BD0E
:1019F00000217B4881718181C18101707949096829
:101A0000E1221202914201D1042100E0052141713D
:101A1000704780B50020724988718881C881012291
:101A2000CA700871087048708870022000F08AFA45
:101A300001BD70B56A4CA078022811DB6A480168C4
:101A4000022291430160FA20800000F09AFBBFF36C
:101A50004F8F664866490860BFF34F8F00BFFDE7B0
:101A60002178022902DB0720607170BD491C2170BA
:101A7000012121710025E570192148432618300005
:101A80004C3000F0A1FB81B230004C30FFF75DFD1F
:101A90009620C000E081A5810520A071032000F000
:101AA00051FA70BD00204E4988718881C881087044
:101AB0008878401C887005204871704738B5484CBC
:101AC0004D48E0810025A5810A20A07100F05CFC52
:101AD00001202072E57131BD38B50025404CE5711B
:101AE000A571A581E581257200F039F900F0A6F80D
:101AF000A5720120607231BD80B53948C1790022DC
:101B0000022908DB82718281C2810921417104208E
:101B100000F018FA01BD491CC1713749C1818281A9
:101B20000A21817101BD30482D494A7A002A0CD022
:101B3000026802239A430260887A401CC2B2642A77
:101B400001DB0020487288727047016802220A4354
:101B50000260704722484179491E092900D970471F
:101B600080B501A2525C9744081A242E38424C5882
:101B7000626C00214171FA22D200C281818102216E
:101B8000817101BD00214171FFF708FF01BD0021F6
:101B90004171FFF72DFF01BD00214171FFF739FFB2
:101BA00001BD00214171FFF744FF01BD00214171DA
:101BB000FFF778FF01BD0021417101200D49087038
:101BC00001BD00214171FFF779FF01BD0021417185
:101BD000FFF782FF01BD00214171FFF78DFF01BDBD
:101BE0000000002004060020140400480400FA0548
:101BF0000CED00E00B060020DC05000041542B56E4
:101C0000455253494F4E0D0A00000000322800D0C3
:101C1000704780B5684600BF06A106E0642800D082
:101C2000704780B5684600BF03A10A680260FFF7ED
:101C3000A9FC01BD814500008276000080B54148C5
:101C40000021417001700022002000F09DFC01BDC8
:101C500010B54078401E8041C043C00F394C6070C1
:101C60000022002100F090FCA078642802DA60785D
:101C7000012800D00020207010BD80B50200002196
:101C80005078C0019278104300F0F8FC01BD80B597
:101C9000020000215078C0019278104300F003FD4B
:101CA00001BD80B500214278D2018078104300F058
:101CB0000AFD01BDF8B54478224DAC708178E97019
:101CC0002700642F14DAFA208000FFF7DFFD86B2C8
:101CD000002C01D1370000E0774338006421FFF782
:101CE000D5FDA880A888301AE88068782870F1BDF2
:101CF0000020287000220021687800F045FCF1BD2A
:101D000010480178012900D0704780B54178012939
:101D100017D10189002905D0491E01810022002127
:101D2000012007E04189002907D0491E4181002296
:101D30000021002000F028FC01BDC188418181887C
:101D4000018101BDF405002080B500F085FC00F0A4
:101D5000B9FD6448016801220A43026001BD80B5F3
:101D60006048016801229143016000F075FC00F0B9
:101D7000A9FD01BD80B55B48016801229143016066
:101D800000F06AFC00F09EFD00F092FD00F086FE7F
:101D900001BD00001CB504005248016801229143B6
:101DA000016000F059FC60788003A178C90101430B
:101DB000E07808434C49086000204C4908704C49C1
:101DC0000870684658A10A680260FFF7DBFB13BD84
:101DD00080B501004878C0018978084300F03CFFD5
:101DE000444900F054FF4449086000F088FE01BDFA
:101DF00080B54178C901807801434048018000F0F6
:101E00007EFE01BD10B5040000F09AFE3C48384942
:101E100009784A0051184018617880310170A17822
:101E20004170E178817010BD30B431490A7844784E
:101E3000A4038578ED012543C0782843314C9500F3
:101E40006051912A00DA521C0A7030BC7047417808
:101E500089038278D2010A43C07810432A49086076
:101E6000704740782949087070474078401E80418B
:101E7000C043C00F26490870704700B54078010183
:101E8000081AC0006421FFF701FD2249088000BD47
:101E900080B500F055FE01BD00B54078962189005F
:101EA00048436421FFF7F2FC1B49088000BD00B5E0
:101EB00040789621890048436421FFF7E7FC1749E1
:101EC000088000BD407816490880704700B540780A
:101ED0009621890048436421FFF7D8FC1149088006
:101EE00000BD00000C2C014090000020800000206C
:101EF00081000020000020418C0000208400002090
:101F0000980000205C02002094000020580200206D
:101F1000100600200E060020DE05002054020020DE
:101F2000560200200C060020A40000007047FEE7C7
:101F3000C9B202788A4203D0401C002AF9D100209D
:101F40007047FEE74A4908707047F0B4484A137872
:101F500051785088022B19D1062913DA64280FDB37
:101F60000020444C256880266E4026602568402667
:101F7000B5432560491C508051701370F0BC704708
:101F8000401CF8E7002000210023F4E7032B0CD1CC
:101F90006428F5DB0020374C256880266E402660DB
:101FA00025684026B5432560E5E7334C2578002DAC
:101FB00014D0324D2D78002D0AD02E4801684023D0
:101FC0009943016001680B43036000205080D5E70E
:101FD000FA267600B042D3DB2570CCE7284C247873
:101FE000012C07D1234C256840262E432660256806
:101FF0008026D7E7234C2478012C0AD16428BFDB44
:1020000000201C4C256840266E40266025688026EE
:10201000C8E7012B0DD1642801DB0020B4E7401C88
:10202000144C25684026B543256025682E4326605C
:10203000A1E7042B10D16428A2DB00200D4D2E68EF
:10204000402777402F602E688027BE432E60491CB2
:10205000CDB2062D8FDB96E70648016880240C433D
:10206000046001684024A14301600020002182E750
:102070000006002014000048D0050020CF050020F5
:10208000CD050020CC05002010B445480C21426845
:102090000A4006D0426803239A43426042680A40DD
:1020A000FCD102680123134303600222036813403A
:1020B000FCD04368A024A4031C4344604368394C0B
:1020C0001C4044600368D4051C4304601306046884
:1020D0001C40FCD043681A43426042680A40082A08
:1020E000FBD110BC70473048016802220A430260ED
:1020F0002E482F49C1622F218162016881220A4343
:10210000026070472B480168802292020A430260F5
:1021100001688022D2020A430260042026490A682C
:1021200002430A604A69022313434B619021C905A7
:102130000A68030313430B600A68830213430B60AE
:102140000A6810430860486902229043486170475A
:102150001A4801688022914301600168402291433E
:1021600001600221C94302680A4002601448026803
:10217000114001600D48016801229143016072B66F
:102180007047FA21890048430E490A68002804E094
:102190000B689342FCD00A68401EF9D170470000DA
:1021A00000100240FF7FFEFF1C10024000040040B0
:1021B000E703000014100240000400481400004827
:1021C0001404004824040040431C0178401C0942C8
:1021D000FBD1C01A7047FEE7A448817AC07A084351
:1021E00004D1A348016802220A430260704700003C
:1021F000F8B580239B009F48006818439D490860FC
:1022000003209025ED052968014329602968020211
:102210000A432A6098490A68D20703D50A6802244B
:1022200014430C600A68D207FCD44A680124A24314
:102230004A600A688024240614430C600A68002A55
:10224000FCD4CA6804241443CC6011220A624A6890
:1022500002434A604A684C0C14434C60874A146835
:102260000E0D2643166014688E0D26431660146802
:10227000834E264016601468202626431660146894
:1022800080262643166014684026B4431460146800
:102290001026B44314600224166826431660546066
:1022A000784C9460714C26001036D660764E776874
:1022B000764E3E4087033743734E7760744F3B60E2
:1022C00001261368334313600A68052313430B6028
:1022D0000721E170A070E171A0716E4A6E496F48EC
:1022E00000F028FDA0826E4800F03CFDE0826D48C1
:1022F00000F038FD20832868302188432860E86892
:1023000010210143E9605B4801680E43066066489E
:10231000016804220A430260816804220A43826041
:10232000C16804220A43C2606048016801605648DF
:1023300000685F4901405448016040203860F1BDA9
:10234000042059490A68024013D04A69024010D05B
:102350004A6902434A614549564A1368184001D008
:10236000002005E090690223034393610120087374
:10237000C8727047022050490A68024002D04A6879
:1023800010434860704700003EB5384C8020400143
:10239000218A411A01A800BF4BA213680360CA1129
:1023A00042707F2529408170217A012900D00021C7
:1023B000C170FFF7E7F8608A00F04EFCE62189055E
:1023C00000F0B2FD3D4900F0AFFD3D4900F05FFC7B
:1023D0003C4900F0A9FD00F0FFFD69463BA21368EF
:1023E0000B60C2114A7005408D70607A012800D0E0
:1023F0000020C8706846FFF7C5F803B030BD38B597
:102400001A4C2100608A00F0E9FC0500211D208A99
:1024100000F0E4FC617B0A2902DA491C617331BDDA
:10242000218B884201DA012006E0217A012904D1BA
:10243000E18A814201DA00202072A18AA94280410A
:10244000C043C00F6072012802D0207A012809D150
:10245000A07A002808D10120A072FFF780FCFFF7C6
:10246000EDFB31BD0020A07231BD0000C40500208D
:1024700018000048181002400824014008000240DB
:10248000FFCFFFFF4024014004E400E0FF00FFFF16
:1024900000E100E000007A440000FA440000E0405F
:1024A000000036420000974200040140080001404D
:1024B000FFFF00FF1000004800000240333353408C
:1024C000ABAAAA3E0000C8428300000086000000BC
:1024D00070B48B480168C022D2020A43026041688E
:1024E000820D0A4342608748874CC4622F2585626B
:1024F0008123016819430160B049CC628D620A688A
:102500001A430A60B14AD462956214682343136087
:10251000B24B1C682402240A80252D0625431D6029
:10252000AF4C80252D0325605D68AE4E2E40C50B57
:1025300035435D608025AD0325605D68AA4E2E4061
:1025400080252D0435435D608023DB032360322327
:10255000FF24F4340025A54EF0612020355474602A
:102560003460738133833164300044300570B46269
:102570007462F385B3870262682175548460446095
:10258000C381838370BC7047F8B5984BCC00611849
:1025900089005C18212162542168E369D962002115
:1025A0002181934B1D680226B5431D60002A0CD182
:1025B00020216054E169012802D1CA68104302E079
:1025C000C86801229043C860F1BD012832D10125BD
:1025D000202165542221655486480688002E0ED09D
:1025E0000020E060608900F037FB0700300000F059
:1025F00033FB0100380000F04AFB206115E06089E0
:102600007D490988002903D000F026FBE0600CE03A
:102610007A490988484300F02FFB794900F037FBDD
:102620006061E060032022216054E069C1680D43CD
:10263000C560F1BD7348008800280AD00421222219
:10264000A15400F009FB0100E06800F020FB2061CC
:10265000F1BD20202154F1BD10B4644803210022B3
:10266000202402552123C254C269D3680124A34304
:10267000D3602430491EF2D110BC70475B4ACB00B6
:102680005918890051184881088300202122885454
:10269000202288545C48CA69D062C869C168012296
:1026A0000A43C2607047514ACB005918890051183B
:1026B000488170474D4ACB0059188900511808606D
:1026C000C969C862704710B502000C004F4811007C
:1026D000FFF7DFF8401E4549E20012199200891801
:1026E0000860C969C86210BD49490A68002804E049
:1026F0000B689342FCD00A68401EF9D17047000075
:102700001810024000200040E7030000F8B5040064
:10271000E06901250169294049D00169A9430161A6
:1027200027682120205C012827D1E06800F054FCB4
:1027300080B238490978414308006421FFF7A6F8C0
:1027400020836068B8421BD0334E3188002902D103
:10275000676000200FE02189002911D1002800D1F5
:1027600067606068381A00F042FB3188FFF791F823
:10277000010400D10120208102E06760608920838C
:10278000FFF72AFD208BFFF7AFFF022023490A68DD
:1027900002430A60E2696368D3622023E35C002B92
:1027A00005D1D368AB43D3600A6810430860F1BD1C
:1027B00080B50E48FFF7AAFF01BD000000440140AC
:1027C00080B51748FFF7A2FF01BD00000048014097
:1027D00080B51448FFF79AFF01BD000010E400E047
:1027E00000E100E0FF00FFFFFFFF00FFA404002066
:1027F00014000048DE05002054020020560200208C
:102800000000C8420C0600200F27000040420F00C5
:1028100024040040580200200E0600202800004832
:10282000C8040020EC04002097480821C278012A3F
:1028300002D14268521C42600830491EF6D17047EE
:1028400080B50178F0220A40802A0BD0902A06D069
:10285000B02A0AD0E02A0BD0F02A0CD001BD00F03B
:1028600040F801BD00F08DF801BD00F0CEF801BDCB
:1028700000F0E4F801BD0907090F032902D005297A
:1028800003D001BD00F004F801BD00F049F901BD1D
:1028900080B501004878C0018978084300F0DCF970
:1028A0007A4900F0F4F97A49086000F028F901BD8E
:1028B000784810217F22002343800270001D491EAA
:1028C000FAD1704770480021C170C172C174C176DD
:1028D000232281542B228154332281543B22815460
:1028E0007047F8B56C490A6802239A430A608178F8
:1028F000002902D100F045F8F1BD634C2300082601
:1029000041780A00143A5F788F4202D1DF78012FB4
:1029100036D0512A34D20833761EF4D10021220059
:10292000D378002B04D0491C08320829F8DB11E0C9
:10293000CA00A3180126DE7006783607360F1E700F
:102940004378661CB3548078A31C9854022901DC98
:1029500000F086FA250008266C46FA27FF00686812
:10296000B8420AD3287880210143217068786070CA
:10297000A878A070684600F004F80835761EEED1FD
:10298000F1BDF8B5002400213F4D2B000F225E78E9
:102990004778BE4204D11E7807781740BE4204D063
:1029A000491C08330829F2DBF1BDC8002E18F47069
:1029B0007460032928DA00F053FA1820E97E01290F
:1029C0000ED1295C3170691C095C717029188978F5
:1029D000B1702818C4700120F07000F041FAF1BD08
:1029E00020202321695C0129EBD028202B21695C60
:1029F0000129E6D030203321695C0129E1D038205B
:102A00003B21695C0129DCD0F1BD10B50400607880
:102A1000782805D0792803D07B2801D07C2801D1E3
:102A2000FFF71AFE6078072807D1A07819492278A5
:102A30001207920E885400F013FA10BDF8B50F2457
:102A40001449027822409200891842785206520EA8
:102A50008378DB01FE25AD011D40154380229201E4
:102A6000AA1A4A80084D03260700287839780F22D1
:102A70000A40904204D1E878012801D100F0F0F931
:102A80000835761EF1D1F1BD10050020000020416F
:102A90008C000020500500201400004880B55D48DF
:102AA0005D49C16000210161416141700170DB211C
:102AB0004900183000F0AEFA92218900574800F022
:102AC000A9FA684660A136E055480168C20C0A437D
:102AD000026054485449C1622F2181620168012279
:102AE0000A43026051480168514A0A40C021090264
:102AF00011430160802080014E490860704710B585
:102B0000444CA08800F0A8F8E16800F00DFA01003C
:102B1000494800F0BCF800F097FA4849086010BD39
:102B200080B547480168012291430160FFF794FD99
:102B3000684600BF45A10A680260FEF723FD01BD9B
:102B40000020344988707047F8B5324FF888002863
:102B50002CD038697969884223D23C0018342F4D33
:102B6000922628683969884213D12000FFF768FE51
:102B70003878B978492801D1002203E0922805D19C
:102B8000002049227A70012900D00121B970401C2F
:102B900038702D1DE41C761EE3D13869401C386165
:102BA00001E0FFF7BDFFF888401EF880F1BD254821
:102BB0000168C90707D501680122914301601548E2
:102BC000C188491CC18070470000000080B51148D1
:102BD0008178012919D10189002913D1AF218900F8
:102BE0000181C178032907DD00218170FFF798FF7B
:102BF000684600BF16A104E0491CC170684600BFCA
:102C000014A198E7491E018101BD00210181C17015
:102C100001BD0000800000200000F0425C020020A6
:102C200018100240002C0140E70300000CE400E013
:102C3000FF00FFFF00E100E0C0E1644C2C2C0140EC
:102C40000C2C0140102C0140A1000000A20000004B
:102C5000A5000000A30000009D2102000AD002D4BC
:102C6000491E9218FCD5C905100A1206524100D31C
:102C7000012A4841704700009D210200EED55242D2
:102C8000F446FFF7EBFF0122D2071043604730B450
:102C900005004D400122D20715404B180418240EA0
:102CA00025D01B0E2CD0FF2C31D0FF2B34D0E41AB2
:102CB000000209021043114343084808D10D1B1AB2
:102CC00002D2641EDB181B18DB18834200D31B1AC8
:102CD0004941F9D37F3423DDFF2C05DAE4054808A8
:102CE0006041284330BC7047FF20C005F9E7280049
:102CF0001B0E03D0FF2BF5D14902F3D0D043F1E7EF
:102D0000FF2C01D14002F9D1FF20C005E9E74002C4
:102D1000F4D1FF2BF8D1F1E728004902E2D0EDE72A
:102D20000B0200202442DCD15B129B1CD9D9D805B0
:102D3000D7E7FEE738B504001500280000F097F942
:102D400001002800FFF7A3FF210000F0EDF8734910
:102D5000FFF79DFF8B21C90500F0E6F800F03CF974
:102D600080B232BD10B501005A4C5B4800F07FF9CB
:102D700000F00EFA02000B0058A003C8FDF764FF34
:102D800000F01FFA574900F072F900F001FA56A25C
:102D90000CCAFDF759FF00F014FA00F0F9F902002F
:102DA0000B0053A003C8FDF78BF900F00AFA524953
:102DB00000F0BAF85149FFF76AFFFE21890500F0DB
:102DC00056F900F0E5F902000B0000205449FDF728
:102DD0003BFFFDF7D7FE201A80B210BDCA780B88E2
:102DE0005A4310188A7810410880088870470100FB
:102DF000012900DA4842704770B501004248CA0014
:102E000086180D004148424972785200895AFEF7EF
:102E100040FDFFF721FF04003E483178890040184B
:102E20000221405EFFF728FFE421890500F07CF8CD
:102E300000F0AEF932A20CCAFDF708FD02000B004B
:102E400000203849FDF727FE00F0BBF90100200003
:102E500000F06AF800F0F8F82900FFF72BFC70BDCD
:102E6000B0B50025284C5C27FF43E078002802D14C
:102E70000122E9B225E06078143878435021FEF74A
:102E800005FD643024490978012910D180B2A17868
:102E9000414308007F21FEF7F9FC80B21D492278EA
:102EA0009200895C414308007F21FEF7EFFCE9B204
:102EB00080B2FFF7F8FBE8B2FFF79EFF0122E9B20C
:102EC0000120FFF761FB6D1C0834E8B20228CCDD5D
:102ED000B0BD0000FF0F000033938843333333331A
:102EE0009E243241004079C56666666666A27240DD
:102EF0009B91048B0ABF054000401C4600B8174652
:102F00009A9999999999B93F1005002040420F006C
:102F10008033000850050020100600203333534052
:102F20000000B0400000F03F30B405004D400122E9
:102F3000D20715404B180418240E2ED01B0E32D089
:102F4000FF2C34D0FF2B3AD0E418000209021043C2
:102F50001143000A090A9446C2B24A43000AC3B2A6
:102F60004B43000A4843110A5B181A43D2B2190AAC
:102F7000091801D44918641E080A7F3C23DBFE2C83
:102F800008DAE40509061143634699416041284384
:102F900030BC7047FF20C005F9E728001B0EFF2B4F
:102FA000F6D1D043F4E72800FF2CF1D1F9E7400235
:102FB000F7D1FF2B01D14902F3D1E005E7E7D805AE
:102FC0004902E4D0EDE743020020641CDFD15B122C
:102FD0009B1CDCD9D805DAE70122D2070118090EBB
:102FE0007F3910D449421F310FD4001805D2C001D7
:102FF0001043C84000D5D0437047C0011043C840BB
:1030000005D440427047002070470042F3D51000BD
:103010007047FEE70022FFE71300103906D330B4F3
:103020001400150010393CC0FCD230BC490700D355
:103030000CC000D504C0890002D30280801C002986
:1030400000D502707047FEE700180ED2010E7F39DE
:103050000BD449421F3105D4C0010122D2071043CD
:10306000C84070470020401E704700207047012272
:10307000D20703004B402ED4431A01D2C01AC918FC
:1030800030B44B180418240E1B0E22D0FF2C20D075
:10309000E31A182B1DDC09021143C40D641E000243
:1030A000104394461925ED1A0A00AA40D940451844
:1030B00001D36D08A41CE405D209280A2D062A4371
:1030C0006546AA41604103181B0EFF2B01D3C00DBA
:1030D000C00530BC7047514006E05140CCE70122AA
:1030E000D20703004B40F8D4431A03D2C01AC918C0
:1030F0005040514030B44B18090211430418240EBB
:103100001B0E40D0FF2C3AD025009D410BD31ED87A
:10311000C50D4002401A0BD3ED050100400AC90558
:1031200091416841D5E7C50D40024918401AD0D0F9
:1031300001214008491C0018FCD58C4204D36D1AAB
:10314000000AED054019C4E7E8051040C1E7182D55
:10315000BFDCAC1C0D00E140E5414D40012D494173
:10316000C40D00021043451A01D46D199543641E25
:10317000E405280A2D069541604130BC7047FF2BBD
:10318000A7D1D843A5E72442A3D10020A1E7FEE7B9
:10319000012212060118CA420AD28A420DD83822E8
:1031A000120609098918C20FD20711434007704758
:1031B00000D049080909014301E0C10FC9070020F7
:1031C0007047012252054B18DA4201D95815704751
:1031D0005B0D0722D2019B1A10D9FF2B1DD2DB05F4
:1031E0000122D2070A4013430903020D1143490A81
:1031F000C200524100D9491CC81870470AD1800A40
:103200000A0302435212921C04D9D3070B40D00583
:1032100018437047C80FC0077047C80F0002FF303F
:10322000C005704741680268914208D00389002BAD
:1032300005D08A4205D2C91A8A4200D311004160E2
:103240007047C9189142F8E7F8B50400E5682220F4
:10325000205C012832D167893800FFF7FDFC0600A9
:103260002800310000F078F822D8384D68884743AC
:103270003800FFF701FD3649FFF709FD07002D88EB
:10328000002D12D030003900FFF729FF00902800F0
:10329000FFF7E2FC01000098FFF7F9FC2061022033
:1032A000676122216054E660F1BD3E000320F7E72C
:1032B00020692900FFF7DBFE0600F4E72E00022854
:1032C0000BD1666928003100FFF709FF0100206972
:1032D00000F042F810D80320E3E70428E3D1206986
:1032E000290000F039F807D8052022216054002079
:1032F000202160540026D6E728002169FFF7EFFE61
:10330000DAE710B5134C2020205C012805D12000FD
:10331000FFF788FF2000FFF797FF4420205C01287B
:1033200007D120002430FFF77DFF20002430FFF775
:103330008BFF6820205C012807D120004830FFF770
:1033400071FF20004830FFF77FFF10BD54020020BE
:103350000000C842A40400200CB401221206031885
:10336000DA4207D84B18DA4204D802000A4392180E
:1033700002D281420CBC7047FCD088420CBC704722
:103380000800090009000A000A000B000C000C00EC
:103390000D000E000F000F001000110012001300AE
:1033A00015001600170018001A001B001D001F0052
:1033B000210023002500270029002C002E003100C9
:1033C000340037003A003E004100450049004E00FD
:1033D000520057005C00620068006E0075007B00C0
:1033E00083008B0093009C00A500AF00B900C400CF
:1033F000D000DC00E900F7000601150126013701C5
:103400004A015D01720188019F01B801D201EE01FC
:103410000B022A024B026E029302BA02E40210036C
:103420003E037003A403DC03160454049604DC0476
:1034300026057505C80520067D06E0064807B7077E
:103440002C08A9082D09B8094C0AE90A8F0B3F0C72
:10345000FA0CBF0D900E6E0F5910521159127113C4
:103460009814D2151E177E18F3197E1B201DDC1E22
:10347000B120A322B224E1263129A32B3C2EFC301B
:1034800070B5FEF701FEFEF73DFEFEF72CFEFDF7E0
:10349000DFFFFFF71DF8FFF717FBFEF7A9FE62B687
:1034A0000124134D134E1BE0FEF754FBFFF74CFBBA
:1034B000FEF78FF82868204012D02868A0432860C3
:1034C000FEF731FBFEF754FAFEF73FFDFEF718FC5E
:1034D000FFF717FFFFF77AFBFFF7A6F9FEF78FFF5D
:1034E00030780028E0D0FEF733FE002070BD00BF2A
:1034F000100400400B0600201148016801220A4315
:10350000026041680F4A0A40426001680E4A0A4060
:10351000026001680D4A0A40026041680C4A0A4094
:103520004260C16A0F229143C162016B094A0A409D
:103530000263416B01229143416300218160704726
:10354000001002400CB8FF08FFFFF6FEFFFFFBFF74
:10355000FFFFC0FF2CFEFFFF094880F3088804200E
:103560000168090E1F22914205D106480121016020
:1035700005480021016005488047054800470000D4
:10358000180A00201810024000000140F934000819
:103590006536000870B40123002413E00168001DA3
:1035A000194202D04D466918491E0C60091D121FB0
:1035B000042AFAD20D00960701D50C80AD1C1A40E2
:1035C00000D02C700268001D002AE7D170BC704743
:1035D00010B5074979441831064C7C44163404E090
:1035E000081D0A68891888470100A142F8D110BD5A
:1035F00008000000240000009DFFFFFFB80300004A
:103600005C02002000000000CFD5FFFF900000000A
:10361000F20000000000002000F00DF8002801D0AA
:10362000FFF7D6FF00BF00BF002000BF00BFFFF7BD
:1036300027FF00F002F80120704780B500F002F883
:1036400001BDFEE70746384600F002F8FBE7FEE75B
:1036500080B500BF00BF024A11001820ABBEFBE7D7
:10366000260002000548014603B4684680F3098835
:1036700000BF00BF00BF00BFFFF7CEFFA5EDF5FE06
:10368000FEE7FEE7FEE7FEE7FEE7FEE7FEE7FEE712
:10369000FEE7FEE7FEE7FEE7FEE7FEE70001FC00CF
:1036A0000001F50018E1000080250000580200002C
:1036B000B004000060090000C01200004038FD00A6
:1036C000004BFD0004960000C0DAFD0024C201009A
:1036D000008403000008070000100E000018150009
:1036E00041542B4E414D455465736C61436F696C79
:1036F0000D0AF9000941542B42415544370D0AE1A6
:103700000001F042810081008100BC00076CDC02F6
:053710000000640064EC
:040000050800366554
:00000001FF
