:020000040800F2
:10000000300A0020BD1000089F0B0008F30B000809
:1000100000000000000000000000000000000000E0
:10002000000000000000000000000000271C000885
:1000300000000000000000006724000843250008BD
:100040007B250008A32500080F290008632B000862
:100050004B36000857360008793600087B36000812
:100060007D360008712C0008331600087F36000822
:10007000813600088931000883360008853600087B
:100080008736000800000000000000008D280008EE
:10009000000000009D280008A728000889360008F5
:1000A000000000008B3600088D360008C9160008D5
:1000B0008F360008000000009136000893360008D3
:1000C000F8B50CB48EB00EAA30CA5FA20CCA22409A
:1000D0002B4002D1002A00D186E302AA03C202A863
:1000E0000CC80020BF4900F093FB00D17CE30EA8B0
:1000F00003C8009102A80CC80020514900F088FBF9
:1001000006D169004915491C02D1280300D16BE3CF
:1001100002A803C8019148004015401C00D141E2EB
:1001200002A803C804AA03C204A803C846A20CCAB2
:1001300002400B4002D1002A00D133E26800401592
:10014000401C00D12EE2200029000B0002185B4168
:1001500004D1002A02D10EA803C818E0394E5A0D66
:10016000B61A352E06DB002280231B060B4002A8A0
:100170000CC00EE0202E03DD203EF140B14000E037
:1001800001D1002003E0002E01DDF040B04002AAC2
:1001900003C204A803C8C80F1CD0002D06DA002033
:1001A00080210906001BA94104000D0002A803C814
:1001B000002906DA002280231B06121A8B41100048
:1001C00019008D4201D1844204D000BF00BF1EA09F
:1001D00003C80BE304A803C81BA430CC0D400022C5
:1001E00080235B039D4203D2009200244D400CE02B
:1001F0002C0DB84A0023DB43121900921A46B44B67
:1002000002400B40B44D14001D43E80F49D06D006F
:100210006D0802A803C804AA03C204A80CC8901859
:10022000494101D1002820D0A64E480D361A352E5E
:100230000EDB80210906194000220B0015E000BFEB
:100240000000F0BF33040000FFFFFFFFFFFFFF7F50
:10025000202E03DD203EF340B34000E001D1002218
:1002600003E0002E01DDF240B24004A803C80029DB
:1002700005DA002680273F06361A8F4101E0060086
:100280000F00002B06DA002080210906801A994110
:1002900002000B009F4203D1964201D1002000E0F2
:1002A000012005900098012829D12000290086A26C
:1002B0000CCA00F0BFFA22D200200190494902AADC
:1002C00003C2280001004A00530D5A1C002B10D015
:1002D000002A0EDDD34B9A4205DB1B058022120655
:1002E0001040184308E07A480840110501430D000A
:1002F00022E0802212061040002405001CE00020AD
:10030000C64922002B0000F0AEFA0022724B00F02A
:100310006CFB00F045FC2038019000F07BFC0022D3
:10032000BF4B00F0A0FA00226B4B00F05EFB02AA6C
:1003300003C20198400101902000290002AA0CCAC2
:1003400000F0B6FB06000F0002A803C822002B0035
:1003500000F04BFB02000B003000390000F064FCA1
:1003600006AA03C206A80CC806A803C800F07BFAB8
:1003700006000F002000290002AA0CCA00F098FB1A
:1003800008AA03C29FA003C832003B0000F06BFA2A
:100390009EA20CCA00F029FB32003B0000F063FA79
:1003A0009CA20CCA00F021FB32003B0000F05BFA7B
:1003B000CBA20CCA00F019FB32003B0000F053FA4C
:1003C000C1A20CCA00F011FB32003B0000F04BFA56
:1003D000BFA20CCA00F009FB32003B0000F043FA58
:1003E000BDA201E00000F03F0CCA00F0FEFA0AAA2C
:1003F00003C20020B34902AA0CCA00F059FB0A004C
:1004000013005C00650D6C1C002D11D0002C0FDD5D
:10041000844DAC4205DB2805802109060A400243D1
:1004200009E02B4A1A402305134304001D0004E091
:10043000802109060A40002415000AA803C83200DA
:100440003B0000F010FA08AA0CCA00F031FB2200B1
:100450002B0000F0CAFA06AA0CCA00F004FA020047
:100460000B001E48784474300199461808A803C848
:1004700000F0BBFA06AA03C2009800F0CBFB0CCE3A
:10048000083E00F0B2FA04000D0006A80CC898A0BF
:1004900003C800F0E8F922002B0000F0A6FA0EAA2B
:1004A0000CCA00F0E0F900228F4B00F0C3F96FD3C3
:1004B00001228E4B00F019FC67D9CA0F10D0002220
:1004C000BB4B0EE034040000CD3B7F669EA0E63FB0
:1004D000FFFF0F8002FCFFFF0000E03F1C0C00004C
:1004E000B44B00F082FA00F05BFB0700009700229B
:1004F000744B0392049322002B000EA803C800F053
:10050000B2F904000D00380000F084FB02000B007B
:100510002000290000F0CCFAB1A20CCA00F0A3F927
:100520000190029106A80CC80EA803C800F09BF920
:1005300004000D003000083003C8320010320CCA2D
:1005400000F053FA02000B000EA803C800F08BF96C
:10055000A3A20CCA00F087F922002B0000F045FA94
:10056000019A029B00F041FA039A049B00F0D6FB2B
:10057000A2A20CCA02400B4001D1002A08D04B00B5
:100580005B155B1C06D10A0304D100209F4901E0E2
:1005900000200021059A002A00D127E180221206BE
:1005A000514023E1084641004915491C059103D1FA
:1005B000000301D002A807E069004915491C049115
:1005C00004D1280302D00EA803C80FE10126680059
:1005D0004015401C00D1B0E0200029000B0002189B
:1005E0005B4104D1002A02D10EA803C829E0814F43
:1005F0005A0DBA1A352A17DB0B0000208021090694
:1006000019401EE0F7DE29BFD8F8C23FF4B3FECC94
:100610001A99C33F62CB68D96F46C73F000050406C
:100620000000903FFF070000202A03DD203AD14060
:10063000914000E001D1002003E0002A01DDD0401C
:10064000904006AA03C220002900002907DA0022F0
:1006500080231B06121A8B410CA80CC001E00CAAC7
:1006600003C206A803C80AAA03C20AA803C800292D
:1006700007DA002280231B06121A8B4108A80CC03F
:1006800001E008AA03C20CA803C808AA0CCA994230
:1006900001D1904200D000260AA803C80B0002181E
:1006A0005B4104D1002A02D106A803C831E0524FB1
:1006B0005A0DBA1A352A1FDB0B00002080210906CB
:1006C000194026E00000F03F4AE98A942449D23FCD
:1006D000F75F97999999D93FBC5555555555E53FC1
:1006E000C6C912DAC471CC3F0000E0C00000E0408F
:1006F000FE822B654715F73F202A03DD203AD140C3
:10070000914000E001D1002003E0002A01DDD0404B
:100710009040002E11D008AA0CCA002906DA002643
:1007200080273F06361A8F41300039008B4203D1B3
:10073000824201D1002600E0012601980599002996
:1007400008D1000306D102A803C8C80F13D1EC0FCB
:1007500044D03CE00499002916D1280314D102A802
:1007600003C826A20CCA0B40002680277F03BB4289
:1007700015D817D313E0EC0F03D1002E2BD1002096
:100780002CE0002E1CD006E0002E1CD10020EC0F27
:100790001FD100281BD000208021090626E01A0D59
:1007A000184EB618EC0F07D1002E09DD002015E019
:1007B0000000E0BF0000E03F002E01DC00200DE063
:1007C0000020002112E002A803C8C80FDFE70021C3
:1007D0000CE0002802D000200B4907E00B4905E09F
:1007E000EF39FAFE422EE63F0020014911B0F0BD7C
:1007F0000000F03F3304000034040000FFFFFFFF5F
:10080000FFFFFF7F02FCFFFF0000F0FF0000F07F12
:1008100090420ED1A4460C001C430128644107D02D
:10082000994205D14C006415641C644000D30C034C
:100830006446704730B4012464054D00EC420BD887
:100840005D00EC4208D80C001C43640004431443D0
:1008500004D2994200D1904230BC7047FCD08B4208
:10086000FAD18242F8E7F0B50E005E400125ED07AF
:100870002E40B446AE0ADF184C18F44208D2F742B4
:100880000ED2640D01D07F0D12D100206146F0BD63
:1008900005D1F74201D87F0D05D10020C143F0BD3D
:1008A000FBD1640DF9D00020C143490549088FE010
:1008B000E419C902DB0229432B43DB0A460DC002BF
:1008C00031438E4630B487B295B27D432E0CADB223
:1008D000140C7C43A419260C240425439CB27C43AD
:1008E000A419190C7943270CC919A4B20F043C436D
:1008F000090C000C97B247432E0CBE193543ADB21C
:10090000170C4743360CBF19A6B2BF193E04354336
:10091000240C3E0C36199FB24743BF19BCB23E0CA3
:1009200089191F0C47437F183E043443390C704625
:1009300080B297B247432E0CBE193543ADB2170CA7
:100940004743360CBF19A6B2BF193E043543240CE9
:100950003E0C36199FB24743BF19BCB23E0C8919F1
:100960001F0C47437F183E043443390C77463F0C35
:1009700090B278432E0C80190604ADB22E43050CBC
:10098000A0B22D18120C7A435019020C80B2240C1C
:10099000A4189AB27A43121914042043120C89182D
:1009A0001B0C7B43C91830BCEF0A394203D1B6197E
:1009B00040414941641E6F12BF0DE41B0BDBFF1960
:1009C000BC4211DA240500274208AE41784161415A
:1009D00066463143F0BD641C05D1401C6141CF0225
:1009E00001D34908F4E750E75DE7F0B40125ED07CE
:1009F0000F005F404FD48B4200D1824205D984461C
:100A0000100062468C4619006346DF184C18640DCE
:100A10007F0D3AD0661C760537D0E61B352E34DCC8
:100A2000DB022B43DB0A0C0DC9022943C912202E1D
:100A30000DDB1700203E06D01F00F741F3405F405A
:100A40000026012A7741C01871410DD217E0170026
:100A5000F741F2405740F3415A40B340F3405A4007
:100A60000026801859410AD3A21C52050FD0C20794
:100A7000012F724117004008CB0718434908641C36
:100A800024054208AF4170416141F0BC7047641CCD
:100A900021050020F9E76B4010E06B40ABE7F7421F
:100AA000F3D1E943F1E72442EFD100200021ECE744
:100AB000F0B40125ED070F005F40EED40C00871A5B
:100AC0009C4105D2C01BA141D219634169406B40D2
:100AD000AE0ADF184C18F442E1D2640D7F0DE2D06B
:100AE000E61B362ED1DCDB022B43DB0AA4460C0DC1
:100AF000C9022943C90A012E28DC04D1D6075208AD
:100B0000DF073A435B08EF0A76429041994114D0DF
:100B100039423BD1B61940414941761C394204D192
:100B2000761C001849413942FAD0B9436746B742AA
:100B300008D9A41B24052143A7E70042EAD1364285
:100B4000E8D1A2E7E40AE10700209EE7202E0BDDB2
:100B5000203E1F00F340F7415F40012A0022574129
:100B60007E42984191410BE01700F741F240574017
:100B7000F3415A40B340F3405A407E42904199417C
:100B80000A0303D2641EB619404149410027641E7E
:100B900024054208AE4178416141F0BC7047FEE750
:100BA000F4464A1805D200F00FF801D58017400826
:100BB000604700F009F80121C907884200D9080000
:100BC000404260474A1812D2400DC9020843012131
:100BD000C9070843520D40210901521A521C06D47C
:100BE00052421F3201D4D0407047C01770470020D6
:100BF0007047FEE7010042221201D21E004207D0D8
:100C000002D4521E0018FCD5C10A400512058918ED
:100C1000704700000100EED54042F446FFF7EBFFBD
:100C20000122D20711436047F0B40E005E40012557
:100C3000ED072E40B446AE0ADF184C18F4423BD202
:100C4000F74241D2640D43D07F0D38D0E41BC90276
:100C5000DB0229432B43CF0ADB0A0600B61A9F4169
:100C600004D2641EB6197F41B6185F416812800D28
:100C700024180018844222DAE80C0021B6197F41BA
:100C8000B61A9F4102D2B6185F413F1C404149410C
:100C9000F4D3241C21DD2405B6197F41B61A9F41E7
:100CA00005D33743C60737430026012F7041614102
:100CB00066463143F0BC7047FCD1F74205D20020B4
:100CC000C14349054908F3E704D00020C143F1E7D7
:100CD0007F0DFAD000206146ECE72442FAD1401C97
:100CE00061410F03F6D30020E2E730B4012464052C
:100CF0004D00EC420BD85D00EC4208D80C001C43C0
:100D000064000443144304D28B4200D1824230BCBD
:100D10007047FCD09942FAD19042F8E7F8B50CB48C
:100D200084B004000D00009548004015401C27D0F9
:100D300002A830C002A803C884A20CCA02400B401B
:100D400001D1002A1CD004A803C80E007000401571
:100D5000401C15D004A803C87CA20CCA02400B405A
:100D600001D1002A0CD002A803C8002900DB80E0D2
:100D7000002280231B06121A8B4168460CC07AE0C1
:100D800069004A15521C02D1280300D061E104A871
:100D900003C80B0059004915491C019101D11803E2
:100DA00040D104A803C869A6C0CE06400F4006D1B2
:100DB000002E04D1002A35D1280333D108E001994F
:100DC00000290AD1180308D1002A2BD1280329D1E0
:100DD00000BF00BF5DA003C83DE15CA003C8204088
:100DE000294022D1002820D159004A0D0C995118D0
:100DF000002A25D1802109060B40190004AA03C24C
:100E000004A803C851A20CCA02400B4001D1002A19
:100E100006D0080041004915491C03D1000301D147
:100E200000BF00BF04A803C815E1002A1BD1280396
:100E300019D104A803C822002B00FFF714FD0AE112
:100E40000029D7DD9B4A914206DB10058021090667
:100E50000B4003430020D0E7974A1A400B05134389
:100E600004A803C8C9E70020802109060B40190027
:100E7000F1E06A4603C200227A4B002B04DA80219B
:100E80000906901A99410B00684603C8994204DA92
:100E90000020802109060E4017E0734B002B04DA76
:100EA00080210906901A99410B00684603C88B42BD
:100EB0000DDC01DB82420AD200BF00BF6B49080093
:100EC000802109060E40064300203100C3E068A0DF
:100ED00003C822002B00FFF7C6FC744B1A000E005B
:100EE00080231B061E40164300223300FFF77DFDC2
:100EF000FFF756FE0090FFF78DFE06000F005EA084
:100F000003C832003B00FFF7AEFC02000B002000DC
:100F10002900FFF7CDFD04000D0059A003C83200E1
:100F20003B00FFF7A0FC02000B0020002900FFF7A8
:100F3000BFFD04000D00690049080022524BFFF775
:100F400079FC07D204A803C853E000BFFFFFFFFFEE
:100F5000FFFFFF7F22002B002900FFF784FC060023
:100F60000F004AA003C832003B00FFF77CFC49A2F7
:100F70000CCAFFF73AFD32003B00FFF774FC02AAEF
:100F800003C246A003C832003B00FFF76CFC45A239
:100F90000CCAFFF72AFD32003B00FFF764FC002279
:100FA000424BFFF722FD22002B00FFF75CFC040000
:100FB0000D0002A803C822002B00FFF716FD002237
:100FC0003B4BFFF712FD06000F0002A803C82200EA
:100FD0002B00FFF76DFD0022354BFFF706FD0200E9
:100FE0000B0030003900FFF71FFE04AA0CCAFFF700
:100FF0003AFC0A0013005C00640D009D65190C9E0C
:10100000AD19002C11D0002D0FDD2A4CA54205DBB7
:101010002005802109060A40024309E0264A1A40B9
:101020002B05134304001D0004E0802109060A403B
:101030000024150009A003C82040294001D1002840
:1010400005D069004915491C03D1280301D100BF0F
:1010500000BF2000290007B0F0BD00BFFFFFFFFF69
:10106000FFFFFF7F00C89CC000C89C400000F07FCD
:10107000FE822B654715F73F000000F8422EE63F41
:10108000F2E4D5BCE7E84B3E0000903C112E5781BE
:10109000A03F503F5843128C8F71BC3F4BE8A54195
:1010A000B752013F0BBDF3DAE8708C3F0000E03F20
:1010B0000000F03FFF070000FFFF0F80094880F3AA
:1010C000088804200168090E1F22914205D10648B4
:1010D000012101600548002101600548804705485D
:1010E00000470000300A00201810024000000140B4
:1010F000013500086D360008000000000000F0BF58
:1011000000000000000000800000000000000080DF
:101110000000000000000000000000C05294EEBF7C
:1011200000000048204E51BE000000F86467BCBCBF
:101130000000000000000000000000208133EDBF2F
:1011400000000080B3DB14BE000000506706A3BCA3
:101150000000000000000000000000D0E9DCEBBF50
:1011600000000008C39259BE00000080B0D3B8BC94
:10117000000000000000000000000070F98FEABFCE
:10118000000000C0A51028BE000000E8BFC0B0BC31
:10119000000000000000000000000070284CE9BFC3
:1011A00000000060134B42BE000000C03D20B8BCF0
:1011B000000000000000000000000050FA10E8BF2E
:1011C000000000C05FF62BBE000000905C71A7BC61
:1011D000000000000000000000000020FCDDE6BF71
:1011E000000000C0F8F154BE00000018E9F6B9BCD8
:1011F0000000000000000000000000D0C3B2E5BF06
:1012000000000070E43254BE00000050DB06B4BCA5
:10121000000000000000000000000010EF8EE4BF9E
:1012200000000020F36252BE000000C02A879ABC72
:101230000000000000000000000000B02272E3BFC8
:10124000000000F0E8E056BE00000028352DBDBCCF
:101250000000000000000000000000000A5CE2BF87
:10126000000000B0FA8E41BE00000040AE6FBDBC71
:10127000000000000000000000000000564CE1BF2C
:10128000000000F015CD5FBE00000000141C90BCF3
:10129000000000000000000000000040BD42E0BF70
:1012A00000000030F93457BE000000E06C1E93BC13
:1012B0000000000000000000000000E0F57DDEBF3F
:1012C000000000B08A535EBE00000080DA77AABC3E
:1012D0000000000000000000000000C09D81DCBF95
:1012E00000000000FFA226BE0000006057E2B0BC74
:1012F000000000000000000000000060F98FDABF6D
:10130000000000580A8151BE000000F05F60B8BCC8
:1013100000000000000000000000000098A8D8BFF6
:10132000000000607A7F45BE000000D05433A3BCAB
:101330000000000000000000000000600FCBD6BFDE
:10134000000000D091CB40BE000000406D1BA0BC4F
:101350000000000000000000000000A0FBF6D4BF69
:1013600000000098C5CE52BE000000003A397EBC95
:101370000000000000000000000000E0FE2BD3BFD2
:101380000000004073872BBE00000000926879BC0B
:10139000000000000000000000000040C069D1BF54
:1013A00000000058F16353BE00000080438D7CBCF8
:1013B000000000000000000000000080D85FCFBFE8
:1013C000000000181F8354BE000000B03F42A2BCC2
:1013D00000000000000000000000008067FCCBBFA0
:1013E00000000060FAFF53BE00000050E00DB8BCE2
:1013F00000000000000000000000000098A8C8BF26
:10140000000000607A7F35BE000000C0543393BCFA
:10141000000000000000000000000000DC63C5BF09
:1014200000000058D6FF54BE00000000396490BC94
:101430000000000000000000000000C0AD2DC2BF91
:1014400000000080A45915BE000000E0484BABBC72
:101450000000000000000000000000801A0BBEBF6A
:1014600000000050BF3C5ABE000000A0B364B6BCF0
:1014700000000000000000000000008004D6B7BF9C
:1014800000000040BBCF36BE0000008076CEA8BC76
:1014900000000000000000000000008032BBB1BF6F
:1014A000000000402A0043BE00000028C60CBDBC5E
:1014B0000000000000000000000000009473A7BFBF
:1014C000000000182B3B59BE000000C0E55DA5BC24
:1014D000000000000000000000000000EE4397BF85
:1014E000000000A0E6C340BE00000020958DB5BC02
:1014F000000000000000000000000000000000806C
:1015000000000000000000800000000000000080DB
:10151000000000000000000070B4A44908688022A8
:10152000920202430A6001200A6802430A604A6884
:10153000830313434B609021C9050A68A0239B03D2
:1015400013430B608A68F0239B0313438B604A6A42
:1015500088235B0013434B6295490A681043086077
:101560000868944A02400A6093484A6802404A6008
:101570000A68042313430B600A68082313430B60B3
:101580000A68202313430B6080228B6813438B600F
:101590008A490B691B021B0AD4051C430C61884B4A
:1015A00014051C60874C2568874E2E4026602568F0
:1015B000864E2E4026602568284020602068202521
:1015C000A8432060206802432260206840229043A4
:1015D0002060206810220243226020680222024319
:1015E000226008687A4A0240C02000041043086064
:1015F000200D186070BC704700B50100754801608F
:10160000754800684A08801800F0A7F97349086017
:1016100000BD10B46B4A13680124A34313605160EA
:101620006F499160D060106801210143116010BCC6
:10163000704720206B490A68024002D04A68104374
:101640004860704770B4684A002111705178674C47
:101650008D006D1864190578257005781570467829
:1016600066704678AD1915708678A6708678AD19C3
:101670001570C678E670C0782D18681CC6437006D1
:10168000400E20710A2900DA491C5170157070BC97
:10169000704755484278002A00D1704710B4494934
:1016A0000B680124A3430B6093009A1892B24A601E
:1016B0004B4A8A604D4ACA600A68012313430B6093
:1016C0000021417010BC704749480168890600D468
:1016D000704710B50168202291430160454C008994
:1016E000A07045480078012820D1A078802803DB2D
:1016F0000020207060700FE06178042909D1217802
:10170000491CCA435106490E88424DD1201D00F0A4
:1017100079F86078042847DA6078A178221D11549E
:10172000401C607020784018207010BD60780F2831
:1017300004D332480078002802D105E0022809D3FA
:101740002E480078012805D1002060700421201D5A
:1017500000F0AEF96078A178221D1154401C607031
:101760006DA1201D00F048FA00280AD02348007817
:10177000002806D160700421201D00F099F9032093
:1017800010E01FA1201D00F037FA00280CD01B48E4
:101790000078012808D1002060700421201D00F08D
:1017A00087F9062000F053FA10BD00001410024023
:1017B00000380140FFEFFFEFFFCFFFFF08E400E03C
:1017C00000E100E01C000240FFF3FFFFFFFCFFFF11
:1017D000FFFF00FF20060020980000200C38014089
:1017E000283801400000024028060020C8050020DB
:1017F0001C380140FC0500200300002004000020EC
:101800004F4B000080B50178812932D0822934D035
:10181000842936D0852936D0A12947D0A22948D09D
:10182000A32949D0A4294AD0A5294BD0A6294CD018
:10183000A7294DD0A8294ED0A9294FD0AB2950D0E7
:10184000AC2951D0AD2952D0AF2953D0B02954D0B2
:10185000B12955D0B22956D0B32957D0C12916D0B5
:10186000C22917D0C32918D0C42919D0C5291AD024
:1018700001BD407800F00CFB4AE0407800F010FB1E
:1018800046E0082000E0092000F0E1F940E000F027
:1018900040FB3DE000F047FB3AE000F04DFB37E055
:1018A00000F02DFB34E000F015FB31E000F08EFB82
:1018B0002EE000F096FB2BE000F09EFB28E000F00D
:1018C000ABFB25E000F0C6FB22E000F0D3FB1FE0FD
:1018D00000F0DAFB1CE000F0E9FB19E000F0F9FB96
:1018E00016E000F000FC13E000F001FC10E000F056
:1018F00006FC0DE000F00EFC0AE000F00FFC07E033
:1019000000F017FC04E000F01FFC01E000F020FCF8
:1019100000F099F901BD00002B56455253494F4E36
:101920003D4A44592D333100F446002804D449423D
:1019300000F013F8404260474042002905D45FD0D0
:1019400000F00BF8404249426047494200F005F878
:101950004942604703460B43E6D40022030A8B4208
:101960000BD203098B4219D243088B422ED2411A63
:1019700000D20146524110467047FF2209023FD073
:1019800012068B4205D3121209028B4201D31212A6
:10199000090203098B4219D300E0090AC3098B42EB
:1019A00001D3CB01C01A524183098B4201D38B0171
:1019B000C01A524143098B4201D34B01C01A524114
:1019C00003098B4201D30B01C01A5241C3088B4259
:1019D00001D3CB00C01A524183088B4201D38B0044
:1019E000C01A524143088B4201D34B00C01A5241E6
:1019F000884200D3401A5241CFD201461046704768
:101A000008B500F0D5FB08BD38B504001500280066
:101A100000F0CFFB0100280000F05BFC210000F08B
:101A2000ADFC724900F055FC8B21C90500F0A6FC05
:101A300000F0FCFC80B232BD10B50100594C5A4890
:101A400000F0B7FB00F010FD02000B0057A003C828
:101A5000FFF7EAF800F021FD564900F0AAFB00F07C
:101A600003FD55A20CCAFFF7DFF800F016FD00F0E9
:101A7000FBFC02000B0052A003C8FEF721FB00F0A4
:101A80000CFD514900F07AFC504900F022FCFE2187
:101A9000890500F08EFB00F0E7FC02000B0000203F
:101AA0005349FFF7C1F8FFF77BF8201A80B210BD49
:101AB0000A0000D1704780B500F02AFD01BD010089
:101AC000012900DA4842704770B501004248CA0057
:101AD00086180D004148424972785200895AFFF732
:101AE0003CFF00F02FFD04003E483178890040188B
:101AF0000221405E00F036FDE421890500F03EFC45
:101B000000F0B2FC32A20CCAFEF7ADFE02000B00E0
:101B100000203849FEF7CCFF00F0BFFC0100200098
:101B200000F02CFC00F02AFD290000F02DFE70BD15
:101B3000B0B50025284C5C27FF43E078002802D18F
:101B40000122E9B225E06078143878435021FFF78C
:101B500001FF643024490978012910D180B2A178AD
:101B6000414308007F21FFF7F5FE80B21D4922782E
:101B70009200895C414308007F21FFF7EBFEE9B248
:101B800080B200F0FAFDE8B2FFF79EFF0122E9B251
:101B9000012000F063FD6D1C0834E8B20228CCDDA2
:101BA000B0BD0000FF0F000033938843333333335D
:101BB0009E243241004079C56666666666A2724020
:101BC0009B91048B0ABF054000401C4600B8174695
:101BD0009A9999999999B93F1005002040420F00B0
:101BE0008C330008500500202D060020333353406D
:101BF0000000B0400000F03F70B50D78002D11D00E
:101C00000C0004E0491C0E78964207D0401C2900C5
:101C100000F074FE002805D0010023005B1C1A7838
:101C2000002AEFD170BDFEE78E488179002909D0E6
:101C3000428983899A4203D341710021817170479F
:101C4000521C42817047002086494881704785496F
:101C50004871704738B5834C60780F2805DB2178D0
:101C6000012902DD0720607131BD00252571E57075
:101C7000800020180069FFF7BFFC0C2180A0FFF74F
:101C8000C8FCFA208000A08165810220A07101209B
:101C900000F03EFE2078012803DD00206178491C19
:101CA0006170401C207031BD00216E4881714181FE
:101CB000818101706C490968E1221202914201D1CF
:101CC000042100E005214171704780B5002065497D
:101CD0008871488188810122CA7008710870487033
:101CE0008870022000F014FE01BD70B55D4CA07834
:101CF000022811DB5D480168022291430160FA204D
:101D0000800000F007FFBFF34F8F59485949086022
:101D1000BFF34F8F00BFFDE72178022902DB0720C8
:101D2000607170BD491C2170012121710025E57091
:101D300019214843261830004C3000F00BFF81B2C7
:101D400030004C30FFF765FC9620C000A081658113
:101D50000520A071032000F0DBFD70BD002041498B
:101D600088714881888108708878401C88700520B7
:101D70004871704738B53B4C4048A08100256581CB
:101D80000A20A07100F07EFF01202072E57131BDB4
:101D900080B500203349C8718871488188810872F4
:101DA00000F01FF900F08CF801BD80B52D48C17915
:101DB0000022022908DB827142818281092141715E
:101DC000042000F0A5FD01BD491CC1712B49818192
:101DD00042810A21817101BD22484179491E0929A8
:101DE00000D9704780B501A2525C9744081A242E8E
:101DF00038424C58626C00214171FA22D200828133
:101E000041810221817101BD00214171FFF722FF53
:101E100001BD00214171FFF747FF01BD0021417164
:101E2000FFF753FF01BD00214171FFF75EFF01BDC8
:101E300000214171FFF792FF01BD00214171012096
:101E40000D49087001BD00214171FFF793FF01BDED
:101E500000214171FFF79CFF01BD00214171FFF797
:101E6000A4FF01BD0000002020060020140400484B
:101E70000400FA050CED00E02C060020DC05000053
:101E800041542B56455253494F4E0D0A0000000055
:101E9000322800D0704780B5684600BF06A106E032
:101EA000642800D0704780B5684600BF03A10A6867
:101EB0000260FFF7C7FB01BD81450000827600008C
:101EC00080B541480021417001700022002000F0DF
:101ED000C5FB01BD10B54078401E8041C043C00F16
:101EE000394C60700022002100F0B8FBA078642813
:101EF00002DA6078012800D00020207010BD80B583
:101F0000020000215078C0019278104300F020FCBC
:101F100001BD80B5020000215078C00192781043C5
:101F200000F02BFC01BD80B500214278D201807801
:101F3000104300F032FC01BDF8B54478224DAC707E
:101F40008178E9702700642F14DAFA208000FFF707
:101F500001FD86B2002C01D1370000E07743380044
:101F60006421FFF7F7FCA880A888301AE880687819
:101F70002870F1BD0020287000220021687800F050
:101F80006DFBF1BD10480178012900D0704780B584
:101F90004178012917D10189002905D0491E018105
:101FA00000220021012007E04189002907D0491EB5
:101FB000418100220021002000F050FB01BDC188BA
:101FC00041818188018101BD1006002080B500F0AB
:101FD000ADFB00F05FFF6448016801220A43026024
:101FE00001BD80B56048016801229143016000F0A5
:101FF0009DFB00F04FFF01BD80B55B4801680122E9
:102000009143016000F092FB00F044FF00F038FFC4
:1020100001F02CF801BD00001CB504005248016815
:1020200001229143016000F081FB60788003A17878
:10203000C9010143E07808434C49086000204C493D
:1020400008704C490870684658A10A680260FFF79A
:10205000F9FA13BD80B501004878C00189780843BA
:1020600000F070FA444900F034F94449086001F086
:1020700034F801BD80B54178C901807801434048FA
:10208000018001F02AF801BD10B5040001F046F806
:102090003C48384909784A0051184018617880391D
:1020A0000170A1784170E178817010BD30B4314980
:1020B0000A784478A4038578ED012543C078284345
:1020C000314C95006051912A00DA521C0A7030BCE4
:1020D0007047417889038278D2010A43C07810435F
:1020E0002A4908607047407829490870704740784D
:1020F000401E8041C043C00F26490870704700B59C
:1021000040780101081AC0006421FFF723FC22492E
:10211000088000BD80B501F001F801BD00B5407830
:102120009621890048436421FFF714FC1B4908806D
:1021300000BD00B540789621890048436421FFF72F
:1021400009FC1749088000BD40781649088070478F
:1021500000B540789621890048436421FFF7FAFBD7
:102160001149088000BD00000C2C014090000020A7
:102170008000002081000020000020418C00002011
:1021800084000020EC020020A40000209400002025
:10219000A00000202D0600202A0600202406002092
:1021A0009C0000209E00002026060020A4000000C5
:1021B00070470122D20703004B402ED4431A01D2AC
:1021C000C01AC91830B44B180418240E1B0E22D0A4
:1021D000FF2C20D0E31A182B1DDC09021143C40D7B
:1021E000641E0002104394461925ED1A0A00AA4005
:1021F000D940451801D36D08A41CE405D209280A6A
:102200002D062A436546AA41604103181B0EFF2B89
:1022100001D3C00DC00530BC7047514006E05140AD
:10222000CCE70122D20703004B40F8D4431A03D273
:10223000C01AC9185040514030B44B18090211431C
:102240000418240E1B0E40D0FF2C3AD025009D41CF
:102250000BD31ED8C50D4002401A0BD3ED0501006B
:10226000400AC90591416841D5E7C50D40024918AA
:10227000401AD0D001214008491C0018FCD58C42DE
:1022800004D36D1A000AED054019C4E7E8051040B3
:10229000C1E7182DBFDCAC1C0D00E140E5414D400D
:1022A000012D4941C40D00021043451A01D46D1996
:1022B0009543641EE405280A2D069541604130BC13
:1022C0007047FF2BA7D1D843A5E72442A3D1002014
:1022D000A1E730B405004D400122D20715404B184C
:1022E0000418240E28D01B0E2FD0FF2C34D0FF2B27
:1022F00037D0E41A0002090210431143430848088A
:10230000D10D1B1A02D2641EDB181B18DB18834286
:1023100000D31B1A4941F9D37F3426DDFE2C08DA9D
:10232000E4054808C907194391416041284330BC7E
:102330007047FF20C005F9E728001B0E03D0FF2BD4
:10234000F5D14902F3D0D043F1E7FF2C01D140028F
:10235000F9D1FF20C005E9E74002F4D1FF2BF8D105
:10236000F1E728004902E2D0EDE70B020020244209
:10237000DCD15B129B1CD9D9D805D7E730B4050056
:102380004D400122D20715404B180418240E2ED0C0
:102390001B0E32D0FF2C34D0FF2B3AD0E4180002B1
:1023A000090210431143000A090A9446C2B24A4383
:1023B000000AC3B24B43000A4843110A5B181A4390
:1023C000D2B2190A091801D44918641E080A7F3CC0
:1023D00023DBFE2C08DAE405090611436346994124
:1023E0006041284330BC7047FF20C005F9E7280052
:1023F0001B0EFF2BF6D1D043F4E72800FF2CF1D1C0
:10240000F9E74002F7D1FF2B01D14902F3D1E005F2
:10241000E7E7D8054902E4D0EDE743020020641C59
:10242000DFD15B129B1CDCD9D805DAE70122D20789
:102430000118090E7F3910D449421F310FD40018FA
:1024400005D2C0011043C84000D5D0437047C00139
:102450001043C84005D440427047002070470042F6
:10246000F3D510007047FEE7012212060118CA4298
:102470000AD28A420DD83822120609098918C20FD9
:10248000D20711434007704700D0490809090143AA
:1024900001E0C10FC90700207047012252054B1807
:1024A000DA4201D9581570475B0D0722D2019B1AF9
:1024B00010D9FF2B1DD2DB050122D2070A4013439E
:1024C0000903020D1143490AC200524100D9491CB7
:1024D000C81870470AD1800A0A0302435212921C9C
:1024E00004D9D3070B40D00518437047C80FC00765
:1024F0007047C80F0002FF30C0057047094205D081
:10250000830707D00270401C491EF9D170470000B4
:102510000022F3E71300103906D330B4140015007D
:1025200010393CC0FCD230BC490700D30CC000D5E8
:1025300004C0890002D30280801C002900D50270EB
:102540007047FEE79D2102000AD002D4491E92186E
:10255000FCD5C905100A1206524100D3012A484190
:10256000704700009D210200EED55242F446FFF76D
:10257000EBFF0122D20710436047FEE700180ED29E
:10258000010E7F390BD449421F3105D4C00101220D
:10259000D2071043C84070470020401E70470020FB
:1025A0007047FEE770B48B480168C022D2020A432C
:1025B00002604168820D0A4342608748874CC462CA
:1025C0002F2585628123016819430160AE49CC62E1
:1025D0008D620A681A430A60AF4AD4629562146831
:1025E00023431360B24B1C682402240A80252D0665
:1025F00025431D60AF4C80252D0325605D68AE4EE0
:102600002E40C50B35435D608025AD0325605D68B8
:10261000AA4E2E4080252D0435435D608023DB03C8
:1026200023603223FF24F4340025A54EF0612020DE
:1026300035547460346073813383316430004430C6
:102640000570B4627462F385B387026268217554C1
:1026500084604460C381838370BC7047F8B5984B35
:10266000CC00611889005C18212162542168E3695B
:10267000D96200212181934B1D680226B5431D605C
:10268000002A0CD120216054E169012802D1CA68D6
:10269000104302E0C86801229043C860F1BD0128E0
:1026A00032D10125202165542221655486480688AF
:1026B000002E0ED00020E0606089FFF743FF070086
:1026C0003000FFF73FFF01003800FFF702FE2061F6
:1026D00015E060897D490988002903D0FFF732FFA2
:1026E000E0600CE07A4909884843FFF73BFF7949ED
:1026F000FFF7EFFD6061E060032022216054E06994
:10270000C1680D43C560F1BD7348008800280AD038
:1027100004212222A154FFF715FF0100E068FFF712
:10272000D8FD2061F1BD20202154F1BD10B46448D2
:1027300003210022202402552123C254C269D368F8
:102740000124A343D3602430491EF2D110BC70474A
:102750005B4ACB0059188900511848810883002032
:1027600021228854202288545C48CA69D062C869F2
:10277000C16801220A43C2607047514ACB00591810
:1027800089005118488170474D4ACB00591889007B
:1027900051180860C969C862704710B502000C0082
:1027A0004F481100FFF7D9F8401E4549E2001219C1
:1027B000920089180860C969C86210BD49490A6851
:1027C000002804E00B689342FCD00A68401EF9D14F
:1027D000704700001810024000200040E70300008E
:1027E000F8B50400E0690125016929404BD0016971
:1027F000A943016127682120205C012829D1E068D4
:10280000FFF714FE80B2384909784143080064217B
:10281000FFF7A0F820836068B8421DD0334E31889E
:10282000002902D16760002011E02189002913D11D
:10283000002800D167606068381AFFF740F93188D6
:10284000FFF78BF820812089002800D1012020810A
:1028500002E067606089208300F084F9208BFFF735
:10286000ADFF022022490A6802430A60E2696368F8
:10287000D3622023E35C002B05D1D368AB43D36044
:102880000A6810430860F1BD0044014080B50C485F
:10289000FFF7A6FF01BD00000048014080B51548C4
:1028A000FFF79EFF01BD80B51348FFF799FF01BDFB
:1028B00010E400E000E100E0FF00FFFFFFFF00FF89
:1028C000A404002014000048240600209C000020DE
:1028D0009E0000200000C842260600200F270000AE
:1028E00040420F0024040040A00000202A060020DF
:1028F00028000048C8040020EC040020C9B2027877
:102900008A4203D0401C002AF9D100207047FEE71C
:102910003D4908707047F0B43B4A518853781078AD
:10292000022812D1062B0DDA64295BDB0021374C1B
:10293000256880266E40266025684026B5432560C0
:102940005B1C5CE0002000232BE003280AD16429F3
:1029500048DB00212D4C256880266E4026602568C6
:10296000402616E02A4C2478012C04D1274C2568F7
:1029700040262E430AE0274C2478012C0CD16429F0
:1029800030DB0021214C256840266E4026602568FA
:102990008026B543256032E001280ED1642902DB90
:1029A000002000212BE0491C184C25684026B54327
:1029B000256025682E43266021E0042814D164296F
:1029C00010DB0021114D2E68402777402F602E68C4
:1029D0008027BE432E605B1CDDB2062D0FDB00237B
:1029E00000200CE0491C0AE008490B6880241C43C5
:1029F0000C600B684024A3430B600021002310707F
:102A000053705180F0BC70471C0600201400004831
:102A1000910500209005002010B445480C21426823
:102A20000A4006D0426803239A43426042680A4043
:102A3000FCD10268012313430360022203681340A0
:102A4000FCD04368A024A4031C4344604368394C71
:102A50001C4044600368D4051C43046013060468EA
:102A60001C40FCD043681A43426042680A40082A6E
:102A7000FBD110BC70473048016802220A43026053
:102A80002E482F49C1622F218162016881220A43A9
:102A9000026070472B480168802292020A4302605C
:102AA00001688022D2020A430260042026490A6893
:102AB00002430A6002224B6813434B60CB68034316
:102AC000CB604B691A434A619021C9050A68030328
:102AD00013430B600A68830213430B600A681043B8
:102AE00008604869022290434861704717480168AE
:102AF0008022914301600168402291430160016896
:102B00000222914301600D48016801229143016056
:102B100072B67047FA21890048430D490A680028B7
:102B200004E00B689342FCD00A68401EF9D170475C
:102B300000100240FF7FFEFF1C1002400004004016
:102B4000E70300001410024000040048140000488D
:102B500024040040431C0178401C0942FBD1C01AE8
:102B60007047FEE790488078002804D18F480168BC
:102B700002220A4302607047F8B5802080008C4929
:102B80000A6802430A6003239021C9050A681A43B0
:102B90000A600A681C0214430C600121854A14680B
:102BA0000C4003D0146802252543156014680C40BE
:102BB000FCD154688C435460146880252D0625434D
:102BC00015601468002CFCD4D46804252543D56016
:102BD00011241462546823435360536804011C4356
:102BE0005460754B1C68450025431D601C684508F2
:102BF00025431D601C68714D25401D601C68202503
:102C000025431D601C68802525431D601C684025E8
:102C1000AC431C601C681025AC431C6002241D687A
:102C200025431D605C60664C9C605F4C251DDD602B
:102C3000644D2F68644E3E40C0273F0237432F60EB
:102C4000624D28601868014319601068052101432E
:102C500011605F4A5F496048FEF7D6FE20815F48F9
:102C6000FEF7EAFE60815E48FEF7E6FEA081F1BD58
:102C700002205C490A68024002D04A68104348605A
:102C8000704700003EB5484C80204001E188411A61
:102C900089B201A856A213680360CA0942707F2551
:102CA000294081702178012900D00021C170FEF7F0
:102CB000C9FCA088FFF746FCE6218905FFF75EFB0B
:102CC0004949FFF75BFB4949FFF758FBFFF7AEFBAC
:102CD000694600BF47A213680B60C2114A700540E5
:102CE0008D706078012800D00020C8706846FEF71B
:102CF000A9FC03B030BDF8B52B4CE0784100611859
:102D0000A2880A82E2888A84401CE070C0B20A2845
:102D10003CDB00250020E07000262200103223005A
:102D2000243305211788C0191F88F6195788C01940
:102D30005F88F6191B1D121D491EF3D10A21FEF7EB
:102D40000CFE009030000A21FEF707FE2178A289D0
:102D5000904208D200290CD101202070FFF741F9E0
:102D6000FFF7AEF805E0012903D16189814200D265
:102D7000257020890099884210D36078002805D1F9
:102D800001206070FFF72DF9FFF79AF860780128AD
:102D900002D02078012803D1012002E06570F8E715
:102DA0000020A070F1BD0000900500201800004830
:102DB000181002400824014008000240FFCFFFFF26
:102DC0004024014008E400E0FF00FFFF00E100E0D4
:102DD00000007A4400803B45000090400000F44130
:102DE0000000974200000240333353410000C842C4
:102DF000830000008600000097480821C278012A5D
:102E000002D14268521C42600830491EF6D1704718
:102E100080B50178F0220A40802A0BD0902A06D093
:102E2000B02A0AD0E02A0BD0F02A0CD001BD00F065
:102E300040F801BD00F08DF801BD00F0CEF801BDF5
:102E400000F0E4F801BD0907090F032902D00529A4
:102E500003D001BD00F004F801BD00F04FF901BD41
:102E600080B501004878C00189780843FFF76AFB04
:102E70007A49FFF72EFA7A49086000F02EF901BD71
:102E8000784810217F22002343800270001D491ED4
:102E9000FAD1704770480021C170C172C174C17607
:102EA000232281542B228154332281543B2281548A
:102EB0007047F8B56C490A6802239A430A60817822
:102EC000002902D100F045F8F1BD634C230008262B
:102ED00041780A00143A5F788F4202D1DF78012FDF
:102EE00023D0512A21D20833761EF4D100212200AA
:102EF000D378002B1AD0491C08320829F8DB2500AA
:102F000008266C46FA27FF006868B8420AD328787A
:102F100080210143217068786070A878A0706846AD
:102F200000F017F80835761EEED1F1BDCA00A318DF
:102F30000126DE7006783607360F1E704378661C51
:102F4000B3548078A31C98540229D8DCFEF7F0FD16
:102F5000D5E7F8B5002400213F4D2B000F225E7805
:102F60004778BE4204D11E7807781740BE4204D08D
:102F7000491C08330829F2DBF1BDC8002E18F47093
:102F800074600329F8DAFEF7D3FD1820E97E0129E1
:102F90000ED1295C3170691C095C7170291889781F
:102FA000B1702818C4700120F070FEF7C1FDF1BDAA
:102FB00020202321695C0129EBD028202B21695C8A
:102FC0000129E6D030203321695C0129E1D0382085
:102FD0003B21695C0129CFD1DBE710B504006078A3
:102FE000782805D0792803D07B2801D07C2801D10E
:102FF000FFF79CFB6078072807D1A0781949227851
:103000001207920E8854FEF793FD10BDF8B50F24F9
:103010001449027822409200891842785206520ED2
:103020008378DB01FE25AD011D401543802292010E
:10303000AA1A4A80084D03260700287839780F22FB
:103040000A40904204D1E878012801D1FEF770FDD2
:103050000835761EF1D1F1BD100500200000204199
:103060008C000020500500201400004880B55F4906
:103070005F48C860002008614861487008705D4979
:103080005D4A492310600870487088705060C870AD
:10309000087148710832891D5B1EF3D1684600BF74
:1030A00060A136E055480168C20C0A4302605448EA
:1030B0005449C1622F218162016801220A430260E2
:1030C00051480168514A0A40C02109021143016078
:1030D000802080014E490860704710B5434CA0889D
:1030E000FFF730FAE168FFF749F901004948FFF7B7
:1030F000F0F8FFF743FA4849086010BD80B547482B
:103100000168012291430160FFF710FB684600BF90
:1031100045A10A680260FEF795FA01BD0020334917
:1031200088707047F8B5314FF88800282BD038697F
:103130007969884222D22F4C2F4D9226286839690E
:10314000884213D12000FFF763FE3878492801D167
:10315000002103E0922807D1002049217970B97835
:10316000012901D00121B970401C38702D1DE41CCB
:10317000761EE3D13869401C386101E0FFF7BEFFDD
:10318000F888401EF880F1BD25480168C90707D5B9
:1031900001680122914301601448C188491CC18023
:1031A0007047000080B511488178012919D1018943
:1031B000002913D1AF2189000181C178032907DDDE
:1031C00000218170FFF79AFF684600BF17A104E055
:1031D000491CC170684600BF15A19AE7491E0181CC
:1031E00001BD00210181C17001BD000080000020EF
:1031F0000000F042EC020020A40000201810024061
:10320000002C0140E70300000CE400E0FF00FFFF9A
:1032100000E100E0C0E1644C2C2C01400C2C01408A
:10322000102C0140A1000000A2000000A500000039
:10323000A30000004168026891420DD00389002B71
:103240000AD08A4203D2C91A41608A4202E0C918F0
:103250004160914200D342607047F8B504002220DB
:10326000205C01282DD165892800FFF76BF9060045
:10327000E068310000F076F81FD8374F7888454372
:103280002800FFF76FF93549FFF723F801003D8863
:10329000002D0FD0E66061613000FEF7C2FF06002E
:1032A0002800FFF74FF901003000FFF712F8206106
:1032B000022014E06161E16010E02169FEF779FF0E
:1032C00022E002280ED16569E0682900FEF7A9FF17
:1032D0000100206900F046F812D8E56003202221A1
:1032E0006054F1BD042810D12069E16800F03AF87B
:1032F00006D805202221605400202021605403E0DC
:10330000E0682169FEF78DFFE060F1BD10B5144C57
:103310002020205C012805D12000FFF78BFF200032
:10332000FFF79BFF4420205C012807D120002430B8
:10333000FFF780FF20002430FFF78FFF6820205C1C
:10334000012807D120004830FFF774FF20004830E3
:10335000FFF783FF10BD00009C0000200000C84262
:10336000A40400200CB4012212060318DA4207D884
:103370004B18DA4204D802000A43921802D2814262
:103380000CBC7047FCD088420CBC70470800090098
:1033900009000A000A000B000C000C000D000E00D2
:1033A0000F000F001000110012001300150016008E
:1033B000170018001A001B001D001F002100230029
:1033C0002500270029002C002E0031003400370092
:1033D0003A003E004100450049004E0052005700AF
:1033E0005C00620068006E0075007B0083008B004B
:1033F00093009C00A500AF00B900C400D000DC0021
:10340000E900F70006011501260137014A015D01B7
:10341000720188019F01B801D201EE010B022A025C
:103420004B026E029302BA02E40210033E037003E1
:10343000A403DC03160454049604DC042605750575
:10344000C80520067D06E0064807B7072C08A9082E
:103450002D09B8094C0AE90A8F0B3F0CFA0CBF0D75
:10346000900E6E0F59105211591271139814D215F3
:103470001E177E18F3197E1B201DDC1EB120A3220F
:10348000B224E1263129A32B3C2EFC3070B5FFF786
:10349000C3FAFFF7FFFAFFF7EEFAFEF73DF8FFF782
:1034A00081F8FFF7FFFDFFF767FB62B60124124DBD
:1034B000124E19E0FEF790FCFFF71DFCFFF732FEFD
:1034C000FEF7E7F8286820400ED02868A04328605F
:1034D000FEF7AAFBFFF71FFAFEF754FDFFF716FFF2
:1034E000FFF760FEFFF788FC30780028E2D0FFF796
:1034F000FDFA002070BD00BF100400402C06002023
:103500001148016801220A43026041680F4A0A40DB
:10351000426001680E4A0A40026001680D4A0A4092
:10352000026041680C4A0A404260C16A0F2291431E
:10353000C162016B094A0A400263416B0122914357
:103540004163002181607047001002400CB8FF0801
:10355000FFFFF6FEFFFFFBFFFFFFC0FF2CFEFFFF9C
:1035600070B40123002413E00168001D194202D049
:103570004D466D1E49190C60091D121F042AFAD20E
:103580000D00960701D50C80AD1C1A4000D02C70A0
:103590000268001D002AE7D170BC704730B5016891
:1035A0004118446862088A188368E40704D54C46C9
:1035B0001B1901E0641C06D191420BD00C7864B257
:1035C000491C0D78491C1D705B1C002CF2D4641E34
:1035D000F7D5F1E70C3030BD10B507497944183103
:1035E000064C7C44163404E0081D0A688918884794
:1035F0000100A142F8D110BD080000002400000025
:1036000061FFFFFF8C050000A40000200000000007
:103610008DFFFFFF80000000E6000000000000209A
:1036200000F00DF8002801D0FFF7D6FF00BF00BF63
:10363000002000BF00BFFFF729FF00F002F80120C3
:10364000704780B500F002F801BDFEE70746384636
:1036500000F002F8FBE7FEE780B500BF00BF024ABA
:1036600011001820ABBEFBE72600020000BF00BF20
:1036700000BF00BFFFF7D4FFFEE7FEE7FEE7FEE76F
:10368000FEE7FEE7FEE7FEE7FEE7FEE7FEE7FEE712
:10369000FEE7FEE70001FC000001F50018E1000074
:1036A0008025000058020000B004000060090000FE
:1036B000C01200004038FD00004BFD0004960000E1
:1036C000C0DAFD0024C201000084030000080700E6
:1036D00000100E000018150041542B4E414D45546A
:1036E00065736C61436F696C0D0AF9000941542BD5
:1036F00042415544370D0AE10001F042F700076CE2
:07370000DC0200006400641C
:040000050800366D4C
:00000001FF
