:020000040800F2
:10000000100B0020A93600084535000847350008C8
:1000100000000000000000000000000000000000E0
:10002000000000000000000000000000493500084A
:1000300000000000000000004B3500084D350008AE
:1000400043080008000000002B13000853130008A9
:10005000C72300084B2A0008BF2C00088736000879
:1000600000000000553500085F3500089336000891
:10007000CD36000869350008CF36000800000000C2
:10008000D13600080000000000000000D336000850
:1000900000000000D5360008D7360008D936000821
:1000A00000000000DB360008000000007335000887
:1000B00010B5040001D1012010BD3D20205C0028B6
:1000C00004D13C216054200000F03CFC28E00221D7
:1000D0003D228154016801220B6813430B603D21CE
:1000E00042540020704700680121C2680A43C26080
:1000F0000268114301600020704700680121C94374
:10010000C2680A40C260026A0B4B134006D1026A01
:10011000124B134002D10268114001600020704769
:1001200002203D216054211D206800F034FA012096
:100130003D216054002010BD1111000010B50400D5
:1001400001D1012010BD3D20205C002804D13C21BC
:100150006054200000F04EFCE2E700004404000080
:1001600010B504001DE038B5040054E00400080098
:1001700006D0042908D008290AD00C290CD010E098
:100180002068C26802230AE02068C268042306E0EF
:100190002068C268082302E02068C2681023134365
:1001A000C3600122206800F041FB20680A498842B0
:1001B00005D00A49884202D02C49884204D1416CBA
:1001C000802212020A434264016801220A4302604B
:1001D000002010BD00000000002C01400044014040
:1001E0000400080006D0042908D008290AD00C29E8
:1001F0000CD010E02068C2681E4B0AE02068C2687C
:100200001D4B06E02068C2681C4B02E02068C268F3
:100210001B4B1340C3600022206800F007FB2268DC
:1002200018481949194B9A4205D0194B9A4202D0E5
:100230000E4B9A4209D1136A0B4006D1136A034050
:1002400003D1536C0A4D1D4055642268136A19404E
:1002500006D1116A084003D110680121884310605B
:1002600001203D216054002032BD000000480140C3
:10027000FF7FFFFFFFFDFFFFFFFBFFFFFFF7FFFF1C
:10028000FFEFFFFF4404000011110000002C0140AB
:1002900000440140F8B504002068002502260169E9
:1002A000314015D0C168314012D00221C9430161EB
:1002B000012121778069800703D0200000F09BFB9B
:1002C00005E0200000F098FB200000F096FB257769
:1002D000206804270169394016D0C168394013D01D
:1002E0000421C943016126778069C021890001404A
:1002F00003D0200000F07FFB05E0200000F07CFB35
:10030000200000F07AFB257720680826016931403B
:1003100014D0C168314011D00821C9430161277749
:10032000C069800703D0200000F065FB05E02000D5
:1003300000F062FB200000F060FB257720681021B0
:1003400002690A4016D0C268114013D01021C94377
:1003500001612677C069C0218900014003D02000D7
:1003600000F049FB05E0200000F046FB200000F013
:1003700044FB25772068012102690A4008D0C26841
:10038000114005D00121C9430161200000F09AFB12
:100390002068802102690A4008D0C268114005D057
:1003A0008021C9430161200000F0DFFB206840216B
:1003B00002690A4008D0C268114005D04021C943F3
:1003C0000161200000F0D2FB2068202102690A4070
:1003D00008D0C268114005D02021C9430161200026
:1003E00000F0C5FBF1BDF8B504003C20205C0128FD
:1003F00001D10220F2BD01203C23E05402203D2324
:10040000E0542C4F86020D00002A06D0042A15D095
:10041000082A25D00C2A34D044E0206800F0F0F8F7
:100420002068816908220A43826120688169042268
:1004300091438161206881692A690EE0206800F09B
:1004400013F9206881690E438661206881690F4035
:100450008761206881692A6912020A43826121E06A
:10046000206800F033F92068C16908220A43C2619C
:100470002068C16904229143C1612068C1692A6969
:100480000EE0206800F051F92068C1690E43C66192
:100490002068C1690F40C7612068C1692A691202DA
:1004A0000A43C26101203D21605400203C21605478
:1004B000F2BD0000FFFBFFFF70B504003C20205C94
:1004C000012801D1022070BD26003C36012535707F
:1004D00002203D22A05420688268484B134083606C
:1004E0000868002845D0102845D0202845D030285D
:1004F00045D0402836D0502826D060282BD07028F0
:100500000CD02A03904203D05200904210D03AE01F
:100510002068816807229143816034E0CB684A6893
:100520008968206800F05DF920688168772208E01A
:10053000CB684A688968206800F053F920688168B0
:10054000AA030A4382601EE0CA684968206800F076
:100550001DF9502114E0CA684968206800F027F9A5
:1005600060210DE0CA684968206800F00FF9402159
:1005700006E0002104E0102102E0202100E030210B
:10058000206800F026F900E000003D2025540020FE
:10059000307070BD0000F0B50668774A774B784C34
:1005A000784DA84201D0A04206D17027BE43370043
:1005B0004E683E43A84208D0A04206D0724CA042EA
:1005C00003D0984201D0904203D18B4C3440CE6886
:1005D00026438024A6434C69344304608C68C4627B
:1005E0000C688462A84203D0984201D0904201D1A5
:1005F0000969016301214161F0BD00008800FFFF2E
:10060000F8B5026A01239A430262036A4268846968
:100610007325AC430D68254300950224A3438C68E1
:100620001C43554B554D574EB04203D0A84201D004
:1006300098420AD10827BC432700CC683C430427D2
:10064000BC43B04203D0A84201D0984205D16A4BC6
:1006500013404D691D438A692A434260009A8261B2
:10066000496841630462F1BD70B5026A10239A4380
:100670000262026A43688469604D25400C68240266
:100680002C432025AA438D682D0115433D4A9042F5
:1006900008D1802295432E00CA68150135434022B7
:1006A000954305E0354A904202D0334A904206D144
:1006B000534A1A404B698E691E43B300134343608B
:1006C000846149688163056270BD000070B5026A8B
:1006D0004C4B13400362046A4268C56973239D430F
:1006E0000B682B43484D25408C6824022C43254D34
:1006F000A84207D1454D2540CC6826022E43444CE4
:10070000344005E01D4DA84202D01B4DA84206D141
:10071000404D15404A698E69164332012A434260B2
:10072000C3614968C163046270BD30B5026A3A4B67
:1007300013400362036A4268C469304D25400C6867
:1007400024022C43354D1D408B681B032B430D4D5C
:10075000A84205D0094DA84202D0074DA84204D1B5
:100760002F4D15404A6992012A434260C46149688D
:100770000164036230BD00000048014000440140B4
:1007800000040040002C01400020004030B5036A06
:10079000046A0125AC4304628469F025AC4312016C
:1007A000224382610A2293431943016230BD30B56E
:1007B000036A1024A34303628469036A194D254028
:1007C00012032A438261A022934309011943016263
:1007D00030BD826870239A430A4307211143816028
:1007E000704730B58468104D254029430A431902EB
:1007F0001143816030BD0000FFFCFFFFFF8CFFFF55
:10080000FFF3FFFFFFFEFFFFFFFDFFFFFFF7FFFF0F
:10081000FFFBFFFFFFCFFFFFFFEFFFFFFFDFFFFF4C
:10082000FFBFFFFFFF0FFFFFFF00FFFF10B5036AD1
:1008300001248C40A3430362036A8A401A43026284
:1008400010BDFEE738B586B01022002102A800F0E6
:100850008FF908220021684600F08AF95C4C5D4857
:1008600020602F2060600025A560E560256165613E
:10087000A5612000FFF71CFC002801D000F0F9F969
:1008800080204001029002A92000FFF715FE0028F9
:1008900001D000F0EEF9009501956946200000F0C6
:1008A000EDF9002801D000F0E4F907B030BD30B513
:1008B00087B01C220021684600F05AF9464C474890
:1008C00020602F2060600025A560FF20F430E060EC
:1008D0002561A5612000FFF7EBFB002801D000F0A7
:1008E000C8F92000FFF72AFC002801D000F0C1F968
:1008F00060200090012001900295042004900022C5
:1009000069462000FFF76FFD002801D000F0B1F923
:10091000200000F036F807B030BD80B530483149CE
:1009200001602F214160002181602F4AC260016176
:10093000416180218161FFF7BBFB002801D000F0FD
:1009400098F901BD81B001682848224A914201D13D
:10095000C10C0DE0214A914205D1810D42680A4344
:100960004260406808E01F4A914208D18021890214
:1009700002680A430260006801400091009801B0DB
:10098000704710B586B004001422002101A800F0C1
:10099000EFF820681149884217D18020800214495D
:1009A0000A6802430A6009680840009000988020A5
:1009B00001900220029000200390049004200590F2
:1009C00001A99020C00500F081F906B010BD00001B
:1009D000D4050020002C0140140600200020004017
:1009E0005406002000440140E703000018100240B4
:1009F00014100240704770477047704780B500215F
:100A00004F48FFF7B0FB00F06EFA01BD1CB54D4832
:100A1000FFF773FBFFF7F2FF4B494C48486000209B
:100A20008860C86000224A700A7049499300C85023
:100A3000484B5400A4181B19187058709870521C19
:100A4000922AF3DB684600BF44A10A880280022193
:100A500000F0F7FA13BD10B53B4C608800F0A8FB1E
:100A6000616800F0B5FB01003B4800F009FC00F0B4
:100A70005DFC401E33490968C86210BD80B531482D
:100A8000FFF731FB01BD80B52E48FFF736FBFFF7BE
:100A9000B5FF01BD80B52B48FFF72FFBFFF7B6FF71
:100AA00001BD000080B52748FFF727FBFFF7A6FF31
:100AB000684600BF2AA10A880280022100F0C1FA1C
:100AC00001BD000000681F490968884200D07047D6
:100AD0007CB51D4CA068E16888422DD2002500221B
:100AE0001B49D3B29E008E59864207D0521CD3B206
:100AF000922BF6DBA068401CA06073BD154859001E
:100B0000C918401800F0A4F92078492804D165706C
:100B1000684600BF13A106E0922809D1257049203C
:100B20006070684610A10A880280022100F089FAEC
:100B30002078401C2070DDE7FFF7B4FF73BD000094
:100B400014060020D40500207C0000200000F042A4
:100B500090000020D8020020C0E1644C400F00004B
:100B60004021000040170000401770477047704751
:100B700010B50400080011000200200000F0ECFB9A
:100B8000200010BD80B500F0EDFB00F035F800F05E
:100B9000F9FB00F03FFCFFF78AFE00F059FCFFF77D
:100BA000BCFE00F0C9FCFFF74DFE002201211B2016
:100BB00000F079FD1B2000F07AFD002202210D20BB
:100BC00000F071FD0D2000F072FD0A480068016917
:100BD000C9070BD5016901229143016100F034FE80
:100BE00000F06DFE00F01FFF00F0EFFF01F05CF879
:100BF000EBE700005406002070B594B0302108A83F
:100C000000F0A8FB684600210022002300241EC03B
:100C10001EC01220089001240B940D9410200C90FB
:100C20000E900226109600251195A02080031290A8
:100C3000139508A801F060F8002801D000F019F819
:100C4000072000900196029503950121684601F066
:100C500023FA002801D000F00CF80494069504A8AB
:100C600001F004FB002802D0062000F043FD14B080
:100C700070BD80B5062000F03DFD01BD70B53C2281
:100C8000825C012A01D1022070BD02003C320123A6
:100C9000137002243D254455046865687026B543E9
:100CA0006560046865680E682E4366600468A56820
:100CB0008026B543A5600468A56849682943A160FA
:100CC000FFE73D2143540020107070BDFEB50022A7
:100CD000012301932AE0052703E0574FB842FAD1D8
:100CE0000327A74037432F60544C2668DC43264037
:100CF0004D68ED0300D51E43504D2E606E682640B2
:100D00004F68BF0300D51E436E60AE6826404F6833
:100D1000FF0200D51E43AE60EE6834404E68B60256
:100D200002D526001C003443EC60521C0C682300E2
:100D3000D34076D0019B934002932340F5D094009A
:100D40006D462C704C68022C01D0122C11D1D408A5
:100D5000A40005192C6A6E4637781C263E400F27E2
:100D6000B740BC430F69BC4637006646BE402643C9
:100D70002E62066854000327A740FD432E400F79DA
:100D8000BF07BF0FA740374307604E68012E05D04D
:100D9000022E03D0112E01D0122E11D186682E40C2
:100DA000CF68A740374387604768029EB743BC4679
:100DB0004E683709019E3E40964067463E43466076
:100DC000C66835408E68A6402E43C6604C68E40075
:100DD000ABD51B4C2468019D2543194C2560246824
:100DE000019D25400295029C164C9508AD006519A1
:100DF0002E686C4627780C243C400F27A740BE4342
:100E00009027FF05B84201D100276AE70E4FB8428C
:100E100001D1019F65E70D4FB84200D05DE7022781
:100E20005FE7F7BD002A01D081617047816270479A
:100E300042694A4042617047000C0048000401408A
:100E40001810024008000140000400480008004853
:100E500080B50178F0220A40802A09D0902A04D077
:100E6000B02A08D0F02A09D001BD00F043F801BD36
:100E700000F066F801BD00F096F801BD00F001F841
:100E800001BD80B501780907090F032904D00529A0
:100E900004D1FFF707FE01BD00F001F801BD80B5E8
:100EA00001004878C0018978084300F081F946497B
:100EB00000F0E6F945490860FFF7CDFD01BD38B502
:100EC000434C256843484449444A12785200895AA1
:100ED00001F04AFA401EE8624620686300212000C3
:100EE000FFF73EF931BD05203C4900220A74401E3F
:100EF000FCD1704770B58178002902D100F020F84C
:100F000070BD0F210122354B1C7C002C0FD000241A
:100F10001D192D7C002D03D0641C052CF8DB70BD41
:100F20001D781D551D7A1E1935721C1922744478BE
:100F30001C700078014019721A74FFF7C0FF70BD71
:100F400038B500240021254D02781207120F6B18C6
:100F50001B7A9A4207D142786B5C9A4203D16A1895
:100F6000127C012A03D0491C0529EDDB31BD6A182A
:100F70001474002916D11648FFF7F5F80120012155
:100F80006A18127C002A03D0491C05290ADAF7E7FF
:100F90006A5C2A706A18127A2A72287468180474B3
:100FA000FFF78DFF31BD80B54078782805D07928CE
:100FB00003D07B2801D07C2805D100210448FFF70D
:100FC000D2F8FFF790FF01BD000020418000002013
:100FD0001406002040420F00D4330008940600207D
:100FE00080B501226C496D4801F024FA002801D037
:100FF000FFF73FFE01BD10B5684C6060200001F0B6
:10100000E3F9002801D0FFF734FE012262492000F5
:1010100001F010FA002801D0FFF72BFE10BD10B52B
:10102000040001F00BFD82B221005C4801F042FA9D
:10103000002803D1012000F05DFB10BDFFF719FE71
:1010400010BD70B5020000235548037407E0057C0D
:10105000D65CAD190574D55C861CF5545B1C8B42BF
:10106000F5DB94220270027C521CD3435A06520EC6
:101070004270A322831C5A54C91C8AB201004748FB
:1010800001F018FA002801D0FFF7F3FD61BDF1B5BA
:1010900000684249096888427DD13F4CA07800250C
:1010A000404A1278012A3CD122792378802B28DB10
:1010B000942B05D12571A570E5700120607065E065
:1010C000A32B63D16570E078521CD1434906490EC9
:1010D00088425BD1207A152804D0202807D04028E8
:1010E0000AD053E02000083001F0C5FC4EE020009B
:1010F000083000F04FFD49E02000083001F082FD8B
:1011000044E06578012D41D1002801D1E37003E06E
:101110002518EB71D2182271102800DA401CA0703B
:1011200034E0102805DBA57010212000083001F004
:1011300096FDA0782178220008321154401CA0703E
:101140001948067819A739002000083001F08EFDF3
:10115000002809D0002E07D1A570102120000830EA
:1011600001F07DFD03200FE039002000083001F080
:101170007DFD00280AD0012E08D1A5701021200085
:10118000083001F06CFD042000F0A5FB01222100D5
:10119000009801F04FF9F1BDAC060020900400204A
:1011A000D806002000000020010000204F4B000066
:1011B0009D2102000AD002D4491E9218FCD5C9050F
:1011C000100A1206524100D3012A4841704700001C
:1011D00030B405004D400122D20715404B180418C9
:1011E000240E2ED01B0E32D0FF2C34D0FF2B3AD041
:1011F000E4180002090210431143000A090A944648
:10120000C2B24A43000AC3B24B43000A4843110A20
:101210005B181A43D2B2190A091801D44918641E7E
:10122000080A7F3C23DBFE2C08DAE405090611439B
:10123000634699416041284330BC7047FF20C00598
:10124000F9E728001B0EFF2BF6D1D043F4E7280066
:10125000FF2CF1D1F9E74002F7D1FF2B01D1490270
:10126000F3D1E005E7E7D8054902E4D0EDE7430212
:101270000020641CDFD15B129B1CDCD9D805DAE7A7
:1012800030B405004D400122D20715404B18041818
:10129000240E28D01B0E2FD0FF2C34D0FF2B37D09C
:1012A000E41A000209021043114343084808D10D13
:1012B0001B1A02D2641EDB181B18DB18834200D3F2
:1012C0001B1A4941F9D37F3426DDFE2C08DAE405E8
:1012D0004808C907194391416041284330BC704711
:1012E000FF20C005F9E728001B0E03D0FF2BF5D126
:1012F0004902F3D0D043F1E7FF2C01D14002F9D1EC
:10130000FF20C005E9E74002F4D1FF2BF8D1F1E757
:1013100028004902E2D0EDE70B0200202442DCD194
:101320005B129B1CD9D9D805D7E7FEE700180ED26F
:10133000010E7F390BD449421F3105D4C00101226F
:10134000D2071043C84070470020401E704700205D
:101350007047FEE7002200BF094202D0491E4254F6
:10136000FCD1704780B50648016810220A4302602C
:10137000002001F092FC01F0A3FC002002BD00005F
:1013800000200240F8B586B01422002101A8FFF722
:10139000EFFB802080021D490A6802430A600A6848
:1013A0001040009000988020C0020A6802430A6042
:1013B00009680840009000989026F6050022082150
:1013C0003000FFF72FFD012210213000FFF72AFD2A
:1013D0000F4F012202213800FFF724FD1820019051
:1013E0000124029400250395049501A93000FFF71C
:1013F0006DFC02200190112002900394049501A934
:101400003800FFF763FC07B0F0BD00BF14100240C6
:101410000004004880B501200C490A6802430A60B4
:10142000096808400090009800220321092000F07C
:101430003AF9092000F03BF9002201210A2000F0CE
:1014400032F90A2000F033F901BD00BF1410024048
:1014500080B5344834490160E1210902416000212E
:101460008160C16001610C2242618161C1610162E0
:10147000416200F0A9FF002801D0FFF7FAFB01BD8F
:10148000F8B586B00700142200216846FFF770FB0C
:1014900038682549884243D124488021C9014268DF
:1014A0000A434260426811400591059980218902F2
:1014B00002680A4302600068014005910598802097
:1014C00080000090022501950124029403260396D2
:1014D000049469469020C005FFF7F8FBA002009035
:1014E0000195002502950396049469469020C00555
:1014F000FFF7ECFB0E4C0F48206010206060A560E9
:101500008020E06025616561A5614001E061200007
:1015100001F0EEFB002801D0FFF7ABFB3C666762F1
:1015200007B0F0BD900400200038014014100240C4
:10153000900500201C0002401FB50C2200216846C7
:10154000FFF716FB444C4548206000206060A06017
:10155000E0600121216104226261A061E0612162F9
:101560006062FF22C232A262E062216361632000F6
:1015700001F0CAFC002801D0FFF77BFB052000909A
:10158000802040010190072002906946200001F070
:10159000BFFD002801D0FFF76CFB062000906946D4
:1015A000200001F0B5FD002801D0FFF762FB1020FC
:1015B00000906946200001F0ABFD002801D0FFF744
:1015C00058FB112000906946200001F0A1FD002881
:1015D00001D0FFF74EFB1FBDF8B586B007001422FF
:1015E000002101A8FFF7C4FA38681C49884231D1AC
:1015F0001B48440D416821434160416821400091EE
:101600000099210202680A430260006801400091CB
:10161000009860200190032002900025039501A905
:101620009020C005FFF752FB0E4E0F4830607560EA
:10163000B5608020F0603461000170612020B061ED
:10164000F561300001F054FB002801D0FFF711FBD9
:10165000FE63776207B0F0BD000500200024014062
:10166000141002404C0500200800024010B5C200D2
:1016700018231340FF249C40E2438907090E994038
:10168000030007D5174B0007000F083880088000BB
:10169000181803E014489B089B00C01803681A4000
:1016A0001143016010BD80B5FFF7E0FF01BD0121CE
:1016B000C006C00E81400D480160704710B5401E45
:1016C00080214904884201D3012010BD084C60608C
:1016D00003210020C043FFF7C9FF0020A0600721BD
:1016E000216010BD1CED00E000E400E000E100E03E
:1016F00010E000E06C490870002088804880704746
:1017000010B59024E405002208212000FFF78AFB91
:1017100065484188491C418089B2642902DB002167
:10172000017010BD002210212000FFF77BFB10BDCF
:1017300010B59024E405002208212000FFF772FB79
:1017400059488188002204290ADA43885B1C4380B7
:101750009BB2642B05DB4280491C8180102159E03B
:10176000027010BD10B59024E40500221021200065
:10177000FFF758FB4C484188491C418089B26429D5
:1017800005DB0021418008212000FFF751FB10BD3F
:1017900038B59024E405002208212000FFF742FB21
:1017A00041484188491C82880023062A0BDA41807F
:1017B00089B2502913DB4380521C82801021200003
:1017C000FFF736FB31BD8AB2384DAA4201DB00215A
:1017D00083804180002210212000FFF723FB31BDD0
:1017E00010B59024E405002210212000FFF71AFB19
:1017F0002D488188002206290ADA43885B1C438031
:101800009BB2502B05DB4280491C8180082101E0FE
:10181000027010BD2000FFF70BFB10BD10B5902427
:10182000E405002208212000FFF7FCFA1E48418849
:10183000491C418089B2322905DB002141801021F9
:101840002000FFF7F5FA10BD10B59024E405164806
:101850000078092826D801A1095C8F44082A24426F
:1018600036463C463016002208212000FFF7DAFAFF
:10187000012205E0012208212000FFF7D3FA00220F
:1018800051E7FFF755FF10BDFFF73AFF10BDFFF717
:1018900069FF10BDFFF77CFF10BDFFF7A1FF10BD72
:1018A000FFF7BCFF10BD000000070020DC050000B2
:1018B0005248002141648171C170017170474F48E5
:1018C0008179002906D0426C521E426402D1817097
:1018D0000021817170474949887070474748FA2153
:1018E000C900416401218171704738B5434C2079AA
:1018F0000F2804DBFFF7DCFF00F0BFF931BD002546
:101900006570800020188068FFF775FB3CA0FFF72A
:1019100086FBFA20800060640120A071E078012835
:1019200003DDE5702079401C2071E078401CE070F8
:1019300031BD80B5FFF7BCFF32484068E1210902A4
:10194000884201D1022000E005202C49887001BDA9
:1019500010B52A4C60790021012805DD6171FFF77F
:10196000A7FF00F082F910BDE278012A05DD617160
:10197000FFF79EFF00F081F910BD521CE2700121BB
:1019800061701921484320184830FFF748FBFA20BE
:10199000800060640520A07110BD00201749C87048
:1019A0004A79521C4A7148648871052088707047D2
:1019B00010B50020114CA178012907D01DD30329AF
:1019C00010D007D3052915D010D310BDA070FFF794
:1019D0008CFF10BDA070FFF76BFF0120207000F09E
:1019E0003DF910BDA070FFF7A4FF10BDA070FFF778
:1019F000D4FF10BDA070FFF7ABFF10BD00000020AA
:101A0000415400009004002028480021416081607A
:101A1000417070472548816841607047234A906053
:101A200051705060704721484178002906D04268C3
:101A3000521E426002D1017000214170704738B5DA
:101A40001A4CA578022D03DBFFF7DEFF062020707D
:101A50006D1CA57007211648FFF7E0FF31BD80B56A
:101A600007211348FFF7DAFF01F020F80F480121A2
:101A7000C1700021817001BD38B500240B4D28785C
:101A8000062807D010D308280BD00DD22C70FFF7F2
:101A9000D6FF31BD2C70FFF7B7FFEC7000F0B7F840
:101AA00031BD2C70FFF7DBFF31BD0000F4060020D4
:101AB000DC05000038B58078002800D00120594DA1
:101AC0006870594C2000FEF702FB6878012804D1A9
:101AD00000212000FEF744FB31BD00212000FEF76D
:101AE00042FB31BD8178C901C07801434F48018074
:101AF0004C2900DB4B2101800188022900DA0221F8
:101B000001800088401E484909684863704710B545
:101B10008178C901C0780143454C2180FF2292326F
:101B2000914200DB511E21802188142901DA4148AD
:101B300002E0414800F018FC20802088401E3A490D
:101B40000968C86210BDF8B501008C782500354ED3
:101B5000642D15DAFA208000C97800F005FC87B200
:101B6000002C01D13D0000E07D432800642100F0FD
:101B7000FBFB70807088381AB08001203070F1BD96
:101B8000002030707078012803D100212648FEF72C
:101B9000E7FAF1BD80B54178172911D0202909D085
:101BA0002B290FD0372902D0382906D001BDFFF7E5
:101BB00099FF07E0FFF7ABFF04E0FFF7C4FF01E088
:101BC000FFF778FFFFF726FF01BD164908780028C8
:101BD00000D1704780B54878002817D00A8912488C
:101BE000164B002A05D0D2180A810021FEF7BBFA55
:101BF00001BDCA88002A05D0D218CA800021FEF78C
:101C0000AFFA01BD888808814888C88001BD80B5C9
:101C100000200449487000210348FEF7A4FA01BDE2
:101C200000000000EA060020140600200C07002037
:101C30000607002050C3000040420F00FFFF0000D5
:101C400080B52948FEF743FAFFF7CAF901F07CFB9B
:101C5000012026490870FFF741FE01BD80B5022032
:101C600022490870FFF746FD01BD80B502201F49DB
:101C700008700420FFF73EFD01BD03201B490870DA
:101C80007047FFF7F9FE01F069FB01BD10B5902424
:101C9000E405002210212000FFF7C4F800220821EB
:101CA0002000FFF7BFF8FEE780B510480078002855
:101CB00006D002280AD006D304280BD007D301BDD2
:101CC000FFF7BEFF01BDFFF773FE01BDD9E7FFF7C8
:101CD000DDFF01BDBFF34F8F054806490860BFF324
:101CE0004F8F00BFFDE70000540600200F070020C3
:101CF0000400FA050CED00E0FEB50700A84C3878AA
:101D0000C0074DD58025AD0260680C210140042933
:101D100007D060680C21014008290AD16068C0031F
:101D200007D5206805403BD07868002838D10120CD
:101D3000FEBD7968012902D1206869080BE0994845
:101D4000994A00290AD0052908D120686900014371
:101D500021602068D1430143216005E021680A40E9
:101D60002260216808402060786800280CD001F0CB
:101D70001BFB06002068284012D101F015FB801BD8
:101D80006528F7D30320FEBD01F00EFB0600206896
:101D9000284005D001F008FB801B6528F7D3F1E748
:101DA000022000903868022101401AD0F825ED4346
:101DB00060680C21014007D060680C2101400829AF
:101DC00026D16068C00323D420680221014002D0DC
:101DD000F8680128ABD1206805403869C000284365
:101DE00020603878000750D5F8690028606A3CD038
:101DF00001210143616201F0D7FA0500606A009990
:101E0000014042D101F0D0FA401B0228F6D9B9E7CF
:101E1000F8680028206818D001210143216001F0F2
:101E2000C3FA3E00070020680099014005D101F087
:101E3000BBFAC01B0228F6D9A4E720680540306928
:101E4000C000284320603700CBE701218843206091
:101E500001F0AAFA0500206800990140C1D001F004
:101E6000A3FA401B0228F6D98CE70121884360625F
:101E700001F09AFA0500606A0099014005D001F06E
:101E800093FA401B0228F6D97CE7042638683040D4
:101E900068D000200290B006E169014008D1E169F4
:101EA0000143E161E169084001900198012002903D
:101EB00078480068C00512D476480068A10D014337
:101EC0007448016001F070FA050072480068C005AE
:101ED00005D401F069FA401B6528F6D352E7B968CA
:101EE000012901D1206A0CE00420C0430122D24321
:101EF000002909D0052907D1206A30432062206AD1
:101F000001210143216205E0216A0A402262216A1F
:101F100008402062AB480190B86800280DD001F05D
:101F200043FA0500206A0099014014D101F03CFAFF
:101F3000401B01998842F5D324E701F035FA0500EA
:101F4000206A0099014006D001F02EFA401B019949
:101F50008842F5D316E70298002803D0E0699A4931
:101F60000140E1613878C00627D57869F825ED434E
:101F7000012840D1606B06436663606B0121014319
:101F8000616301F011FA3E000700606B00990140A7
:101F90000CD101F009FAC01B0228F6D9F2E600BF05
:101FA00000100240FFFFFBFFFFFFFEFF606B0540DC
:101FB000B069C000284360633700386A002867D0E2
:101FC00061680C220A40082A00D1B0E68025AD04E1
:101FD0008E49022820684DD10140216001F0E4F9CA
:101FE0003E0007002068284026D001F0DDF9C01B24
:101FF0000228F7D9C6E60421C9438842606B08D19C
:10200000B0436063606B0540B869C00028436063FB
:10201000D3E706436663606B01218843606301F088
:10202000C3F90500606B00990140C6D001F0BCF90E
:10203000401B0228F6D9A5E6E06A0F218843F16A21
:102040000143E162606877490140B06A0843716A00
:1020500001436160206869080143216001F0A4F92F
:1020600006002068284013D101F09EF9801B022849
:10207000F7D987E60140216001F096F90600206853
:10208000284005D001F090F9801B0228F7D979E6A5
:102090000020FEBD00700040F3B581B00127FF4372
:1020A0000124614909682140029A91420AD25E499D
:1020B0000A683A40029B13430B6009682140029A68
:1020C000914263D10090594D022000990968014066
:1020D00006D06968F0229143009A92680A436A60C8
:1020E00000990968214041D000994968012902D12D
:1020F0002868800303E0022903D12868800103D403
:1021000044E02A68104041D06868032290430143AC
:10211000696001F049F906000098406801280CD177
:1021200068680C210140042920D001F03DF9801B92
:1021300024498842F4D30320FEBD02280BD16868ED
:102140000C210140082911D001F02EF9801B1D49F6
:102150008842F4D3EFE768680C21014006D001F013
:1021600023F9801B17498842F5D3E4E72E480299EA
:102170000268224091420BD201680F400299394314
:102180000160006804400298844201D00120FEBD35
:1021900000980078400706D56868254901400098F6
:1021A000C0680843686000F011F822496A681206A6
:1021B000120F895CC84020490860002000F06DFDC6
:1021C0000020FEBD89130000FFFFFFEF1B4B1968C5
:1021D0001B480C220A40082A00D0704730B50F2255
:1021E0001AA48D0C1540645D9B6AC90307D500BF16
:1021F0001AA11A40895C00F0CBF8604330BD200082
:102200001049484330BD0C4800687047FFFFFFFE8F
:10221000094800680C49094A12685205520F895C46
:10222000C8407047FFFFC2FF00200240001002407C
:10223000FFF8FFFF343500088C0000200410024036
:1022400000127A0000093D00C436000802030405AC
:10225000060708090A0B0C0D0E0F101001020304EB
:1022600005060708090A0B0C0D0E0F10F8B504003F
:10227000374D2068C00356D50020009080204005CF
:102280002968014008D1296801432960296808406C
:1022900000900098012000902E4F3868C00510D49F
:1022A0003868A90D0143396001F07EF806003868EE
:1022B000C00506D401F078F8801B6528F7D3032009
:1022C000F2BDC020800069680140234F00291ED064
:1022D0006268104081421AD068683840696880227C
:1022E00052020A436A6069681C4A0A406A60686070
:1022F000C0070CD501F058F806006868800706D4BE
:1023000001F052F8801B16498842F6D3D7E7686877
:1023100007406068384368600098002803D0286848
:102320001049014029602078C00705D5686903215C
:102330008843A168014369612078800605D56869F2
:1023400010218843E168014369610020F2BD00006B
:102350001C10024000700040FFFCFFFFFFFFFEFF6B
:1023600089130000FFFFFFEFCA0F00D0494203109E
:102370005A400DD004B500D3404200F009F8009A4D
:10238000D20701D34942124200D5404204BD0000A9
:10239000094214D088420FD30122030C01D100045A
:1023A0001204002300185B418B4200D35B1A524198
:1023B000F8D319001000704701000020704708B5DD
:1023C00000F0F8FF08BDFEE738B5040014D0250082
:1023D00068356878002803D128702000FFF750F88E
:1023E0002420687020680168012291430160200068
:1023F00000F032F9012801D1012032BD606A0028C5
:1024000002D0200000F0ACF920684168084A0A4078
:10241000426020688168082291438160FFE720685C
:10242000016801220A430260200000F001FA32BD77
:10243000FFF7FFFF70B5030058339C7C202C37D189
:1024400000290BD0140009D0856880267601B5429A
:1024500006D10469002C03D1CC0701D5012070BD41
:102460001C7C012C24D001241C7441651A805A80E4
:10247000FF21B54204D10269002A07D12E4905E0A7
:10248000002D04D10269002A00D07F21998000210B
:10249000596122229A74197401688A6814438C6005
:1024A00000680168902252000A430260002070BD5B
:1024B000022070BD70B5060035005035687E2028BA
:1024C00038D100290BD0100009D0B06880235B01FF
:1024D000984206D13069002803D1C80701D50120F0
:1024E00070BD287E012825D001202876F1642A803D
:1024F0006A800024EC61212068761048296988628E
:102500000F482969C8620F4829690863286944632C
:10251000130032682832F16C286900F015FC402065
:10252000316808622C763068816880220A438260B4
:10253000002070BD022070BDFF0100007D28000852
:10254000AD280008E528000870B504002368D869A4
:10255000196805072D0F07D1820605D58A0603D510
:10256000200000F02DFA70BD9A68002D63D001257F
:102570002A4203D1902676000E405CD0C60705D5CE
:10258000CE0503D51D62E36E1D43E56604230225D7
:10259000860706D5D60704D526683562E66E1E4343
:1025A000E666460706D5D60704D526683362E36E8D
:1025B0001D43E5660825030708D58B0601D4D2071D
:1025C00004D522681562E26E2A43E266E26E002AB2
:1025D00040D0800604D5880602D5200000F0F0F92E
:1025E0004026E06E054003D12068806830401CD052
:1025F000200000F02FF9206881680E4011D081681A
:10260000402291438160606E00280AD08649416370
:10261000606E00F0D1FB00281CD0606E416B8847D3
:1026200070BD200000F0C7FE70BD200000F0C3FEAA
:102630000020E06670BD020605D50A0603D520001D
:1026400000F07DF970BD400604D5480602D5200093
:1026500000F0A9F970BD0000F8B5040010220020B8
:10266000002526683168824F0F40A16839432769E9
:102670000F4361693943E7690F43376077687D49E4
:102680003940E7680F437760B7687B493940A769ED
:102690000F43216A3943B160874909688907890F67
:1026A00005D0022909D006D3032902D006E0002272
:1026B00004E0022202E0042200E0082280231B0240
:1026C000E7699F4225D1002A06D0022A07D0042AB2
:1026D00009D0082A0DD013E0FFF79AFD05E06168E4
:1026E0004808764A08E0FFF771FD616840004A0833
:1026F00002E0616848085A008018FFF749FE00E0D0
:1027000001256F4901400004400C4007400F084379
:1027100018E0002A06D0022A07D0042A0AD0082A84
:1027200013D01AE0FFF774FD06E061684808654AB7
:1027300080180DE0FFF74AFD61684A088018FFF72E
:1027400027FE80B22168C86008E061684808C018A8
:10275000FFF71EFE80B2F06000E001252800F2BD08
:102760002421415CC90706D501684A68564B1340CD
:10277000826A1A434A602421415C890706D50168B0
:102780004A68524B1340C26A1A434A602421415C92
:10279000490706D501684A684D4B1340026B1A433E
:1027A0004A602421415C090706D501684A68494B03
:1027B0001340426B1A434A602421415CC90606D586
:1027C00001688A68444B1340826B1A438A60242153
:1027D000415C890606D501688A68144B1340C26BB8
:1027E0001A438A602421415C490611D501684A6870
:1027F0003A4B1340026C1A434A60026C80235B031D
:102800009A4205D14A68364B1340426C1A434A60DB
:102810002421415C090606D501684A68854B1340AE
:10282000806C1843486070472B290008FFDFFFFFCA
:1028300068300021416020224270827001700020C7
:10284000704701680A68C0239A430A602021692200
:102850008154704701680A68774B13400B60016828
:102860008A6801239A438A6020216A228154704732
:10287000F369FFFFFFCFFFFFFFF4FFFF80B501000B
:10288000486A0968096889060DD4002152228152DC
:1028900001688A6880239A438A6000680168402240
:1028A0000A43026001BD00F087FD01BD80B5406AAA
:1028B00000F083FD01BD0000301002400024F40050
:1028C000F0FF000000127A00FFFFFDFFFFFFFEFF98
:1028D000FFFFFBFFFF7FFFFFFFEFFFFFFFFFEFFFAC
:1028E000FFFF9FFF70B5446A250052350026E87D42
:1028F000212807D120688068000603D52E8020009B
:10290000FFF79FFF287E222807D1206880684006B5
:1029100003D52E812000FFF79DFFE06E10210143BB
:10292000E166200000F047FD70BD80B5406A0100FF
:10293000523100220A810A8000F03DFD01BD0100F4
:102940005231CA7D212A2CD15222825A002A0AD120
:1029500001680A6880239A430A600068016840227F
:102960000A4302601BE0826880235B019A420CD11B
:102970000269002A09D1C26C1288D205D20D0368FF
:102980001A85C26C921CC26405E0C26C531CC364FD
:10299000127803681A855222805A401E088000204F
:1029A00070470220704780B501680A6840239A4347
:1029B0000A6020216922815400F0FEFC002002BD43
:1029C00038B501005A314A8803680C7C222C2AD180
:1029D0009B8C846880256D01AC4209D10469002C70
:1029E00006D11A40436D1A80426D921C426504E084
:1029F000446D651C45651A4022705A22825A521E47
:102A00000A8012040DD1026813680B4C1C4014603C
:102A1000026893680124A343936020220A74FEF79E
:102A200036FB002032BD98690821014399610220DC
:102A300032BD0000FFFFF7FFDFFEFFFF431C017800
:102A4000401C0942FBD1C01A7047FEE7322800D073
:102A5000704780B5684600BF2CA106E0642800D00E
:102A6000704780B5684600BF29A10A68026003214B
:102A7000FEF7E7FA01BD80B521494278172A0DD04B
:102A8000192A0DD01A2A05D0362A0DD18078FFF7E1
:102A9000DDFF07E08078FFF7E1FF03E0082000E0BA
:102AA00006200870FEF7B6FF01BD0000BFB56846FE
:102AB00018A11CC91CC06C4600F068FCC009A070BD
:102AC0007F2700F063FC3840E07000250D48007857
:102AD000012800D00020207100F05CFCC00960716A
:102AE00000F058FC0740A77107480078012800D182
:102AF0000125E5710C216846FEF7A3FABFBD000071
:102B0000F40600200E070020C406002015364500FC
:102B1000151A7600152B0000000000001738076812
:102B20001CB504002D48FDF7E8FAFDF767FFA07813
:102B30008003E178C90101432079084328490860EE
:102B400000202849087028490870684643A10A886F
:102B500002800221FEF775FA13BD80B50100887866
:102B6000C001C9780843FEF723FB2049FEF788FB24
:102B70001F490860FDF76FFF01BD80B58178C9016D
:102B8000C07801431B480180FDF765FF01BD30B5EA
:102B900015490A78184C5500AD1864198578803DA0
:102BA0002570C57865700579A5704479A403857989
:102BB000ED012543C0792843104C95006051912ABE
:102BC00000DA521C0A7030BD81788903C278D201C4
:102BD0000A43007910430A4908607047D405002071
:102BE000840000207C0000207D00002000002041A7
:102BF000800000207E000020D802002090000020ED
:102C00008800002080B541780A291AD00B2921D0EC
:102C10000C291CD00D2917D021290CD0222907D02E
:102C2000232902D0362909D001BDFDF727FF01BDB8
:102C3000FDF729FF01BDFDF72DFF01BDFFF770FF77
:102C400001BDFFF78AFF01BDFFF797FF01BDFFF749
:102C50009EFF01BDFFF7B8FF01BD0000402B0A0039
:102C600000D1704780B5FEF775FB01BD70B50D78DA
:102C7000002D11D00C0004E0491C0E78964207D0BC
:102C8000401C290000F09AFB002805D00100230019
:102C90005B1C1A78002AEFD170BD10B50400FFF755
:102CA000B2FAFA218900FFF773FBFEF707FD002255
:102CB00021000020C043FEF7F6FC002010BDFEE717
:102CC00081B0012009490A6802430A600A6810407D
:102CD00000900098802040054A6802434A60496895
:102CE00008400090009801B0704700BF18100240E3
:102CF00010B5040001D1012010BD02202121605433
:102D0000206801680F4A0A4061681143A2680A43BB
:102D1000E168114322690A4361691143A2690A43C8
:102D2000E16911430160200000F0DBF80020A0629F
:102D3000E06220636063A06301212122A15420216D
:102D4000605410BD0FC0FFFFF2B504000020002545
:102D50002021615C012901D10220F2BD012620273A
:102D6000E65502212127E75D012F20D12127E155DA
:102D7000A06320680168B14301600099200000F061
:102D80009FF82068E16A0029016803D00E220A43F7
:102D9000026007E00A220A430260206801680422F8
:102DA00091430160206801680E43066002E0202222
:102DB000A05402252800F2BD70B500220024012194
:102DC0002123C35C022B03D004228263012415E07B
:102DD00003681D680E26B5431D6003681D688D439A
:102DE0001D60036C01259D40C36B5D602123C154B0
:102DF00020214254416B002900D08847200070BD3B
:102E0000FEB5C16B0968019101680A680092202231
:102E10000423019C056C0426AE40264011D0009C82
:102E20001C400ED00C68224002D10A689A430A6006
:102E3000016C8B40C16B4B60C16A00293FD0884751
:102E4000F7BD012302240025019EB446066C02272B
:102E5000B7406646374016D0009E264013D00E6815
:102E6000324005D10A680A26B2430A602121435440
:102E7000016C8C40C16B4C6020214554816A002953
:102E80001DD08847F7BD08226446066C0827B74066
:102E9000274014D0009C224011D00A680E24A2437F
:102EA0000A60016C01228A40C16B4A608363212160
:102EB000435420214554016B002900D08847F7BDB9
:102EC00030B50124056CAC40C56B6C600468636070
:102ED0004068102802D1A260E16030BDA160E260CC
:102EE00030BD10B504002068054940181421FFF7D3
:102EF0004FFA800020640348E06310BD000000002A
:102F0000F8FFFDBF00000240F8B504000025002CCA
:102F100001D10120F2BD260040367068002804D19E
:102F2000B06030702000FEF757FB10217068084039
:102F300003D1226804209368034000D092E07768B0
:102F40004B4B3B4002271F43776093689B079B0FC7
:102F5000012B05D11368DB070FD4D3681B040CD4F5
:102F6000D3681827BB43A7681F43D760226813693B
:102F70009B009B0867681F4317612268D3683D4F19
:102F80001F40D760626B012A01D0830200E000235A
:102F90002269022A01D1009000E00095226AA0690E
:102FA0008003E769FF030743500338430343E068A6
:102FB0001843009B0343206B40001843636A012BB6
:102FC0000DD1002A03D102000803104307E0726804
:102FD000202313437360B26801231343B360A26AD2
:102FE000FF23C2339A4203D00300E06A1043184320
:102FF0002268D3680343D360A26B0B069A420DD0BC
:10300000012A0BD0022A09D0032A07D0042A05D0AE
:10301000052A03D0062A01D0072A0CD12268536959
:103020000727BB435361226853693827E75D7F0751
:103030007F0F1F4357610222D24301232468E468B3
:103040000D4F2740874205D1B56070680240134399
:1030500073600BE07068024011437160B068184300
:10306000B06002E070680143716001252800F2BD84
:10307000FFFEFFFF1902FEFFE7FF3F83F7B50700E2
:10308000002500243868806840073CD44020385C24
:10309000012801D10220FEBD012640217E54F8699D
:1030A000012804D0380000F0BBF804002CD1029BAA
:1030B0003800403042681549114032020A434260EC
:1030C000856005705348F96B88625348F96BC86294
:1030D0005248F96B08631C203968086038684168F9
:1030E00010220A4342603868C1680E43C660019AE4
:1030F00039684031F86BFFF727FE38688168042291
:103100000A43826000E002242000FEBDFEF1FFFFC2
:10311000FCB504000025002600954020205C012815
:1031200001D10220F6BD01204023E05422689368BB
:103130005B0761D400910968884001905648009966
:103140004968564B9942916A019B46D00B43936262
:10315000A16B8022520591421FD001291DD0022966
:103160001BD0032919D0042917D0052915D0062909
:1031700013D0072911D022680721009B9B6857694B
:103180000F40BB4209D053698B4353612268536996
:10319000009FBF683940194351610099096810299F
:1031A00018D0112931D18021C9030268114301606F
:1031B00000980068102828D1544800685449FFF747
:1031C000E7F80A2148430090009800281DD0009895
:1031D000401EF8E780210904E7E7994391620099CE
:1031E0000968102906D011290FD14A4902681140F7
:1031F00001600AE04849F9E721004031496820228E
:103200000A43210040314A60012640202554300005
:10321000F6BD0000A1320008253300082F33000856
:10322000F8B505000020009028680124816889070E
:10323000890F012905D1016821402AD1C1680904FB
:1032400027D410278168354A0A401AD18168214362
:1032500081602E4800682E49FFF79AF801E0009837
:10326000401E009000980028F9D100F09DF806005B
:103270002868006820400CD100F096F8801B0328D5
:10328000F6D3686C07436F64A86C0443AC640120F8
:10329000F2BD0020F2BD000008270140011000002F
:1032A00010B5416A4A6C5023134029D1486C8022E2
:1032B000920002434A640868C268C0231B0113409D
:1032C0001AD10A6A002A17D10268120714D50122FE
:1032D00083685B0709D443680C24A3434360486CAC
:1032E0000F4B03401A434A6406E0486C2023034313
:1032F0004B64886C02438A64080000F068F810BDD3
:10330000C96B096B884710BD000000008C000020CD
:1033100040420F00FFFFBFFFFFFF7FFF170000804D
:10332000FFFEFFFF80B5406A00F052F801BD80B596
:10333000406A416C40220A434264816C04220A4381
:10334000826400F046F801BD10B5144C0422211D22
:103350001348FFF793FE1348608010BD80B50F48F7
:103360000178428883689BB29A4207D300290CD126
:1033700001210170FEF74BFC092004E0012904D172
:10338000002101700020FEF7B5F901BD0348406837
:1033900080B270470148806880B27047C406002040
:1033A00000050020AA06000001480068704700BF21
:1033B000080700207047704770477047C9B202780D
:1033C0008A4203D0401C002AF9D100207047704780
:1033D000704770470800090009000A000A000B0046
:1033E0000C000C000D000E000F000F00100011006B
:1033F0001200130015001600170018001A001B0019
:103400001D001F00210023002500270029002C009B
:103410002E003100340037003A003E0041004500E4
:1034200049004E00520057005C00620068006E00C8
:1034300075007B0083008B0093009C00A500AF000B
:10344000B900C400D000DC00E900F7000601150156
:10345000260137014A015D01720188019F01B8010F
:10346000D201EE010B022A024B026E029302BA0253
:10347000E40210033E037003A403DC0316045404A7
:103480009604DC0426057505C80520067D06E006C1
:103490004807B7072C08A9082D09B8094C0AE90AFA
:1034A0008F0B3F0CFA0CBF0D900E6E0F591052117E
:1034B000591271139814D2151E177E18F3197E1B1A
:1034C000201DDC1EB120A322B224E1263129A32B2A
:1034D0003C2EFC301148016801220A430260416819
:1034E0000F4A0A40426001680E4A0A4002600168C1
:1034F0000D4A0A40026041680C4A0A404260C16AB3
:103500000F229143C162016B094A0A400263416B79
:103510000122914341630021816070470010024005
:103520000CB8FF08FFFFF6FEFFFFFBFFFFFFC0FF29
:10353000ECFEFFFF00000000000000000102030499
:10354000060708097047FEE77047704780B500F02E
:103550001DF801BD80B50948FFF752FC01BD80B5DB
:103560000748FFF74DFC01BD80B50648FCF792FE09
:1035700001BD80B50448FEF7E7FF01BD4C05002002
:1035800090050020D4050020900400200248016826
:10359000491C0160704700BF0807002070B4012378
:1035A000002413E00168001D194202D04D466D1E33
:1035B00049190C60091D121F042AFAD20D00960742
:1035C00001D50C80AD1C1A4000D02C700268001D83
:1035D000002AE7D170BC704730B5016841184468D3
:1035E00062088A188368E40704D54C461B1901E079
:1035F000641C06D191420BD00C7864B2491C0D7842
:10360000491C1D705B1C002CF2D4641EF7D5F1E739
:103610000C3030BD10B5074979441831064C7C4454
:10362000163404E0081D0A68891888470100A14281
:10363000F8D110BD080000002400000061FFFFFF6A
:103640008006000090000020000000008DFFFFFFBA
:103650008C000000CC0000000000002000F00DF8FD
:10366000002801D0FFF7D6FF00BF00BF002000BF39
:1036700000BFFDF787FA00F002F80120704780B51F
:1036800000F002F801BDFEE70746384600F002F8F8
:10369000FBE7FEE780B500BF00BF024A110018201B
:1036A000ABBEFBE726000200014880470148004707
:1036B000D5340008B936000800BF00BF00BF00BF06
:1036C000FFF7CCFF0000000001020304FEE7FEE765
:1036D000FEE7FEE7FEE7FEE7FEE7FEE7F70018E19C
:1036E000000058020000B004000060090000C01291
:1036F0000000802500004038FD00004BFD000496CE
:103700000000C0DAFD0011C20100008403000008BF
:10371000070000100E00001815FB000F41542B4E3F
:10372000414D455465736C61436F696CF700074107
:10373000542B4241554437E70001F042F700021292
:023740007A000D
:04000005080036B900
:00000001FF
